:020000040800F2
:100000000000012041400008F93F0008FB3F0008C4
:10001000FD3F0008FF3F000801400008000000000D
:100020000000000000000000000000000340000885
:1000300005400008000000000740000809400008D3
:10004000914000089140000891400008914000084C
:10005000914000089140000891400008914000083C
:10006000914000089140000891400008914000082C
:10007000914000089140000891400008914000081C
:10008000914000089140000891400008914000080C
:1000900091400008914000089140000891400008FC
:1000A00091400008914000089140000891400008EC
:1000B0000D400008914000081940000891400008D8
:1000C00091400008914000089140000891400008CC
:1000D00091400008914000089140000891400008BC
:1000E00091400008914000089140000891400008AC
:1000F000914000089140000891400008914000089C
:10010000914000080000000000000000914000083D
:10011000914000089140000891400008914000087B
:10012000914000089140000891400008914000086B
:10013000914000089140000800000000000000000D
:100140009140000891400008914000080000000024
:10015000000000000000000000000000000000009F
:10016000914000089140000891400008914000082B
:10017000914000089140000891400008914000081B
:1001800091400008914000080000000000000000BD
:040190009140000892
:1001980010B5054C237833B9044B13B10448AFF3B9
:1001A80000800123237010BD100000200000000013
:1001B800EC40000808B5034B1BB103490348AFF3F3
:1001C800008008BD0000000014000020EC4000087A
:1001D80081F0004102E000BF83F0004330B54FEAF0
:1001E80041044FEA430594EA050F08BF90EA020F5D
:1001F8001FBF54EA000C55EA020C7FEA645C7FEAF0
:10020800655C00F0E2804FEA5454D4EB5555B8BF12
:100218006D420CDD2C4480EA020281EA030382EA83
:10022800000083EA010180EA020281EA0303362D15
:1002380088BF30BD11F0004F4FEA01314FF4801CE8
:100248004CEA113102D0404261EB410113F0004FFA
:100258004FEA03334CEA133302D0524263EB4303B1
:1002680094EA050F00F0A780A4F10104D5F1200E4F
:100278000DDB02FA0EFC22FA05F2801841F10001AA
:1002880003FA0EF2801843FA05F359410EE0A5F17E
:1002980020050EF1200E012A03FA0EFC28BF4CF0AF
:1002A800020C43FA05F3C01851EBE37101F0004565
:1002B80007D54FF0000EDCF1000C7EEB00006EEB72
:1002C8000101B1F5801F1BD3B1F5001F0CD34908FC
:1002D8005FEA30004FEA3C0C04F101044FEA445253
:1002E80012F5800F80F09A80BCF1004F08BF5FEADA
:1002F800500C50F1000041EB045141EA050130BDBA
:100308005FEA4C0C404141EB010111F4801FA4F15C
:100318000104E9D191F0000F04BF01460020B1FAB1
:1003280081F308BF2033A3F10B03B3F120020CDAE9
:100338000C3208DD02F1140CC2F10C0201FA0CF0C7
:1003480021FA02F10CE002F11402D8BFC2F1200C2C
:1003580001FA02F120FA0CFCDCBF41EA0C019040E2
:10036800E41AA2BF01EB0451294330BD6FEA04042B
:100378001F3C1CDA0C340EDC04F11404C4F1200216
:1003880020FA04F001FA02F340EA030021FA04F328
:1003980045EA030130BDC4F10C04C4F1200220FA7F
:1003A80002F001FA04F340EA0300294630BD21FABD
:1003B80004F0294630BD94F0000F83F4801306BF83
:1003C80081F480110134013D4EE77FEA645C18BF77
:1003D8007FEA655C29D094EA050F08BF90EA020F0E
:1003E80005D054EA000C04BF1946104630BD91EA06
:1003F800030F1EBF0021002030BD5FEA545C05D109
:100408004000494128BF41F0004130BD14F5800447
:100418003CBF01F5801130BD01F0004545F0FE41BB
:1004280041F470014FF0000030BD7FEA645C1ABFF0
:10043800194610467FEA655C1CBF0B46024650EA27
:10044800013406BF52EA033591EA030F41F4002153
:1004580030BD00BF90F0000F04BF0021704730B5D9
:100468004FF4806404F132044FF000054FF00001AE
:1004780050E700BF90F0000F04BF0021704730B56F
:100488004FF4806404F1320410F0004548BF404244
:100498004FF000013EE700BF42004FEAE2014FEA99
:1004A80031014FEA02701FBF12F07F4393F07F4F74
:1004B80081F06051704792F0000F14BF93F07F4FA6
:1004C800704730B54FF4607401F0004521F00041E9
:1004D80020E700BF50EA010208BF704730B54FF06F
:1004E80000050AE050EA010208BF704730B511F074
:1004F800004502D5404261EB41014FF4806404F1AC
:1005080032045FEA915C3FF4DCAE4FF003025FEA2D
:10051800DC0C18BF03325FEADC0C18BF033202EBB5
:10052800DC02C2F1200300FA03FC20FA02F001FA0F
:1005380003FE40EA0E0021FA02F11444C1E600BFAE
:1005480070B54FF0FF0C4CF4E06C1CEA11541DBF61
:100558001CEA135594EA0C0F95EA0C0F00F0DEF82C
:100568002C4481EA030621EA4C5123EA4C5350EA11
:10057800013518BF52EA033541F4801143F4801362
:1005880038D0A0FB02CE4FF00005E1FB02E506F0F3
:100598000042E0FB03E54FF00006E1FB03569CF048
:1005A800000F18BF4EF0010EA4F1FF04B6F5007F4E
:1005B80064F5407404D25FEA4E0E6D4146EB0606C0
:1005C80042EAC62141EA55514FEAC52040EA5E5049
:1005D8004FEACE2EB4F1FD0C88BFBCF5E06F1ED8F3
:1005E800BEF1004F08BF5FEA500E50F1000041EB2A
:1005F800045170BD06F0004646EA010140EA0200D7
:1006080081EA0301B4EB5C04C2BFD4EB0C0541EAF8
:10061800045170BD41F480114FF0000E013C00F30D
:10062800AB8014F1360FDEBF002001F0004170BD31
:10063800C4F10004203C35DA0C341BDC04F114044A
:10064800C4F1200500FA05F320FA04F001FA05F2D6
:1006580040EA020001F0004221F0004110EBD370A3
:1006680021FA04F642EB06015EEA430E08BF20EACF
:10067800D37070BDC4F10C04C4F1200500FA04F372
:1006880020FA05F001FA04F240EA020001F0004104
:1006980010EBD37041F100015EEA430E08BF20EA77
:1006A800D37070BDC4F1200500FA05F24EEA020EBF
:1006B80020FA04F301FA05F243EA020321FA04F0EE
:1006C80001F0004121FA04F220EA020000EBD370A5
:1006D8005EEA430E08BF20EAD37070BD94F0000FA5
:1006E8000FD101F00046400041EB010111F4801FD9
:1006F80008BF013CF7D041EA060195F0000F18BF8A
:10070800704703F00046520043EB030313F4801FC5
:1007180008BF013DF7D043EA0603704794EA0C0F7F
:100728000CEA135518BF95EA0C0F0CD050EA410695
:1007380018BF52EA4306D1D181EA030101F0004112
:100748004FF0000070BD50EA410606BF104619463A
:1007580052EA430619D094EA0C0F02D150EA013646
:1007680013D195EA0C0F05D152EA03361CBF104687
:1007780019460AD181EA030101F0004141F0FE4126
:1007880041F470014FF0000070BD41F0FE4141F4AA
:10079800780170BD70B54FF0FF0C4CF4E06C1CEAAA
:1007A80011541DBF1CEA135594EA0C0F95EA0C0F5F
:1007B80000F0A7F8A4EB050481EA030E52EA03351A
:1007C8004FEA013100F088804FEA03334FF080553B
:1007D80045EA131343EA12634FEA022245EA111568
:1007E80045EA10654FEA00260EF000419D4208BF19
:1007F800964244F1FD0404F5407402D25B084FEAC6
:100808003202B61A65EB03055B084FEA32024FF471
:1008180080104FF4002CB6EB020E75EB030E22BFCE
:10082800B61A754640EA0C005B084FEA3202B6EB8E
:10083800020E75EB030E22BFB61A754640EA5C003D
:100848005B084FEA3202B6EB020E75EB030E22BFCD
:10085800B61A754640EA9C005B084FEA3202B6EBCE
:10086800020E75EB030E22BFB61A754640EADC008D
:1008780055EA060E18D04FEA051545EA16754FEAEF
:1008880006164FEAC30343EA52734FEAC2025FEA0D
:100898001C1CC0D111F4801F0BD141EA00014FF09C
:1008A80000004FF0004CB6E711F4801F04BF01436D
:1008B8000020B4F1FD0C88BFBCF5E06F3FF6AFAE89
:1008C800B5EB030C04BFB6EB020C5FEA500C50F119
:1008D800000041EB045170BD0EF0004E4EEA11319C
:1008E80014EB5C04C2BFD4EB0C0541EA045170BDA3
:1008F80041F480114FF0000E013C90E645EA060EE7
:100908008DE60CEA135594EA0C0F08BF95EA0C0F14
:100918003FF43BAF94EA0C0F0AD150EA01347FF45C
:1009280034AF95EA0C0F7FF425AF104619462CE733
:1009380095EA0C0F06D152EA03353FF4FDAE104696
:10094800194622E750EA410618BF52EA43067FF4E7
:10095800C5AE50EA41047FF40DAF52EA43057FF477
:10096800EBAE12E74FF0FF3C06E000BF4FF0010C82
:1009780002E000BF4FF0010C4DF804CD4FEA410CE6
:100988007FEA6C5C4FEA430C18BF7FEA6C5C1BD0B3
:1009980001B050EA410C0CBF52EA430C91EA030F34
:1009A80002BF90EA020F0020704710F1000F91EA91
:1009B800030F58BF994208BF90422CBFD8176FEA5F
:1009C800E37040F0010070474FEA410C7FEA6C5C2D
:1009D80002D150EA013C07D14FEA430C7FEA6C5C34
:1009E800D6D152EA033CD3D05DF8040B704700BF60
:1009F8008446104662468C461946634600E000BFAE
:100A080001B5FFF7B7FF002848BF10F1000F01BD7F
:100A18004DF808EDFFF7F4FF0CBF012000205DF84A
:100A280008FB00BF4DF808EDFFF7EAFF34BF0120CF
:100A380000205DF808FB00BF4DF808EDFFF7E0FF68
:100A480094BF012000205DF808FB00BF4DF808EDB9
:100A5800FFF7CEFF94BF012000205DF808FB00BF20
:100A68004DF808EDFFF7C4FF34BF012000205DF802
:100A780008FB00BF38B50E4A0E4B054618784FF4F0
:100A88007A73B3FBF0F31068B0FBF3F000F0A2F850
:100A9800044658B90F2D09D8024629464FF0FF30B1
:100AA80000F056F8044B20461D6038BD012038BDC3
:100AB800080000200000002004000020074A08B5B4
:100AC800136843F010031360032000F02FF8002090
:100AD800FFF7D0FF03F0EEF8002008BD0020024029
:100AE800034A044B11681B780B441360704700BF1E
:100AF8007000002000000020014B1868704700BFFC
:100B08007000002038B50446FFF7F6FF631C1CBFD1
:100B1800054B1B78054618BFE418FFF7EDFF401B8F
:100B28008442FAD838BD00BF00000020074AD368C5
:100B380023F4E0631B041B0C43F0BF63000243F47F
:100B4800003300F4E0600343D360704700ED00E039
:100B5800174B30B5DC68C4F30224C4F10703251D24
:100B6800042B28BF0423062D4FF0010505FA03F3D3
:100B780003F1FF338CBF033C00241940A14005FA60
:100B880004F4013C2240002842EA01024FEA021222
:100B9800ADBF00F1604000F00F00064B00F561406A
:100BA800B5BFD2B2D2B21A5480F8002330BD00BF0C
:100BB80000ED00E014ED00E0002808DB4209012305
:100BC80000F01F0003FA00F0014B43F822007047C1
:100BD80000E100E00138B0F1807F0AD2064B074AF5
:100BE8005860F02182F823100020072298601A60CC
:100BF80070470120704700BF10E000E000ED00E002
:100C08002DE9F74FD1F80080DFF89091614A002371
:100C180038FA03F402D103B0BDE8F08F4FF0010EAB
:100C28000EFA03FE18EA0E0600F0A6804C6824F0BF
:100C38001007022F16D14FEAD30A00EB8A0A03F0F5
:100C4800070BDAF820504FEA8B0B4FF00F0C0CFA19
:100C58000BFC25EA0C0C0D6905FA0BF545EA0C05A9
:100C6800CAF820504FEA430A0325D0F800B005FA25
:100C78000AF5ED4304F0030C0BEA050B0CFA0AFC29
:100C8800013F4CEA0B0C012FC0F800C011D887684F
:100C980007EA050BCF6807FA0AFC4CEA0B078760DE
:100CA800476827EA0E0EC4F300179F4047EA0E076D
:100CB8004760C7683D408F6807FA0AF73D43C5603B
:100CC800E50059D5D9F8185045F00105C9F818506C
:100CD800D9F8185023F0030707F1804705F00105FC
:100CE80007F58037019503F0030C019DBD684FEAB5
:100CF8008C0C4FF00F0E0EFA0CFEB0F1904F25EA57
:100D08000E0E3BD0244DA8423AD005F58065A84286
:100D180038D005F58065A84236D005F58065A8422B
:100D280034D005F58065A84232D005F58065A84223
:100D380014BF0725062505FA0CF545EA0E05BD6022
:100D48001568F74314F4803F0CBF3D4035431560E8
:100D5800556814F4003F0CBF3D4035435560956815
:100D680014F4801F0CBF3D4035439560D568A4023C
:100D780054BF3D403543D560013349E70025DAE7E4
:100D88000125D8E70225D6E70325D4E70425D2E7CD
:100D98000525D0E700040140000400480010024087
:100DA8000369194214BF0120002070470AB181610C
:100DB80070478162704743690B4218BF090481611B
:100DC800704700002DE9F347054608B901205BE0AC
:100DD8000368DF0711D42B689E0700F18A802B680F
:100DE8001C0700F1FE802B68580700F14781A869AD
:100DF800002840F0DE81002046E0BE4C636803F026
:100E08000C03042B0AD0636803F00C03082B19D1D8
:100E1800636803F4C033B3F5803F13D14FF4003354
:100E280093FAA3F2216893FAA3F3B3FA83F303F0D6
:100E38001F03012202FA03F30B42CCD06B68002B8C
:100E4800C9D1C3E76B68B3F5803F20D1236843F469
:100E580080332360FFF750FE4FF4003680460127A9
:100E680096FAA6F3226896FAA6F3B3FA83F303F088
:100E78001F0307FA03F31342ADD1FFF73DFEA0EBC2
:100E880008006428ECD9032002B0BDE8F0870BBB4A
:100E9800236823F480332360236823F480232360AA
:100EA800FFF72AFE4FF400368046012796FAA6F38C
:100EB800226896FAA6F3B3FA83F303F01F0307FA3E
:100EC80003F3134287D0FFF717FEA0EB080064284E
:100ED800ECD9D8E7B3F5A02F236803D143F48023D6
:100EE8002360B3E723F480332360236823F480234B
:100EF800AFE7804C636813F00C0F0AD0636803F007
:100F08000C03082B25D1636803F4C033B3F5004FF5
:100F18001FD1022393FAA3F2216893FAA3F3B3FA39
:100F280083F303F01F03012202FA03F30B4203D0F9
:100F3800EB6893427FF44AAF2168F82393FAA3F34E
:100F4800B3FA83F22B69934021F0F802134323602C
:100F580045E7EA6801260AB396FAA6F3B3FA83F3DB
:100F680003F1845303F584139B0002271E60FFF7E7
:100F7800C3FD804697FAA7F3226897FAA7F3B3FA56
:100F880083F303F01F0306FA03F31342D4D1FFF7E8
:100F9800B3FDA0EB08000228ECD974E796FAA6F393
:100FA800B3FA83F303F1845303F584139B000227F8
:100FB8001A60FFF7A1FD804697FAA7F3226897FA0F
:100FC800A7F3B3FA83F303F01F0306FA03F31342FC
:100FD8003FF405AFFFF790FDA0EB08000228EBD91E
:100FE80051E76A69434E444901241AB394FAA4F3B9
:100FF800B3FA83F30B449B0002271C60FFF77CFDC8
:10100800804697FAA7F397FAA7F397FAA7F3726AB5
:1010180097FAA7F3B3FA83F303F01F0304FA03F371
:1010280013427FF4E0AEFFF767FDA0EB080002284B
:10103800E7D928E794FAA4F3B3FA83F30B449B00A7
:1010480002271A60FFF758FD804697FAA7F397FA28
:10105800A7F397FAA7F3726A97FAA7F3B3FA83F399
:1010680003F01F0304FA03F313423FF4BCAEFFF787
:1010780043FDA0EB08000228E7D904E71D4CE3690B
:10108800D90034D4E36943F08053E361E36903F0A2
:1010980080530193019B0126184F3B68DA052FD531
:1010A800AB68012B3DD1236A43F001032362FFF7AC
:1010B80023FD02278246B9464FF0010897FAA7F3A5
:1010C80097FAA7F3002B6CD0226A99FAA9F3B3FA1E
:1010D80083F303F01F0308FA03F3134258D0002EDA
:1010E8003FF485AEE36923F08053E3617FE6002691
:1010F800D2E700BF0010024020819010007000402D
:101108003B6843F480733B60FFF7F6FC80463B681E
:10111800DB05C5D4FFF7F0FCA0EB08006428F6D97E
:10112800B1E63BBB236A23F001032362236A23F061
:1011380004032362FFF7E0FC02278246B9464FF01A
:10114800010897FAA7F397FAA7F373B3226A99FAF3
:10115800A9F3B3FA83F303F01F0308FA03F3134266
:10116800BDD0FFF7C9FC41F28833A0EB0A009842D2
:10117800E7D988E6052B236A03D143F004032362E9
:1011880091E723F001032362236A23F004038DE728
:10119800FFF7B2FC41F28833A0EB0A0098428DD9E0
:1011A80071E697FAA7F3626A8FE797FAA7F3626A7C
:1011B800CDE7514A536803F00C03082B144600F09E
:1011C800828002284FF0807358D193FAA3F3B3FAC0
:1011D80083F303F1845303F584139B0000221A6000
:1011E800FFF78AFC4FF000778046012697FAA7F3AD
:1011F800226897FAA7F3B3FA83F303F01F0306FAFA
:1012080003F3134233D1E36A6A6A23F00F031343EB
:10121800E36262682B6AE96922F476120B4313438E
:1012280063604FF0807393FAA3F3B3FA83F303F187
:10123800845303F584139B004FF000751E60FFF77D
:101248005BFC0126074695FAA5F3226895FAA5F3F3
:10125800B3FA83F303F01F0306FA03F313427FF490
:10126800CAADFFF749FCC01B0228ECD90BE6FFF713
:1012780043FCA0EB08000228B8D904E693FAA3F3CC
:10128800B3FA83F303F1845303F584139B0000221C
:101298001A60FFF731FC4FF000750746012695FAF2
:1012A800A5F3226895FAA5F3B3FA83F303F01F03B5
:1012B80006FA03F313423FF49EADFFF71DFCC01B73
:1012C8000228ECD9DFE501283FF4DEAD5368D06A87
:1012D800EA6903F4C03191427FF478AD2A6A03F4D5
:1012E800701393427FF472AD6B6A00F00F00C01A5E
:1012F80018BF0120C8E500BF0010024011494B6823
:1013080003F00C02082A1AD14FF4701292FAA2F2D2
:101318000F20B2FA82F2C96A90FAA0F0B0FA80F00F
:1013280001F00F0103F47013D340C140064A074887
:10133800415C0748B0FBF1F1D05C48437047044872
:10134800704700BF00100240044100081441000823
:1013580000127A002DE9F0410D46044610B901202B
:10136800BDE8F0814D4A136803F007038B422FD381
:101378002268910737D4D2073DD4484A136803F04E
:1013880007039D4276D32268454D12F0040F7DD1A4
:10139800130706D56B68226923F4605343EAC20336
:1013A8006B60FFF7ABFF6B68F02292FAA2F2B2FA19
:1013B80082F203F0F003D3403A4AD35CD8403A4B68
:1013C80018603A4B1868FFF755FB0020BDE8F0811C
:1013D800136823F007030B431360136803F0070334
:1013E8009942BCD1C4E72E49A0684B6823F0F003AA
:1013F80003434B60BFE76268294E012A27D14FF4A7
:10140800003393FAA3F1316893FAA3F3B3FA83F3A1
:1014180003F01F0302FA03F30B42A0D0736823F012
:1014280003031A437260FFF767FB41F288380746E7
:101438007368626803F00C03B3EB820F9DD0FFF76B
:101448005BFBC01B4045F3D90320BDE8F081022AAD
:101458000CBF4FF00073022393FAA3F1306893FA9C
:10146800A3F3B3FA83F303F01F03012101FA03F393
:101478000342D2E7136823F007032B431360136872
:1014880003F007039D427FF46AAF7CE76B68E1686D
:1014980023F4E0630B436B607AE700BF002002404F
:1014A800001002403E41000808000020040000200F
:1014B800084B4FF4E0625B6892FAA2F2B2FA82F249
:1014C80003F4E063D340044AD35C044A1068D8406C
:1014D800704700BF001002404E410008080000207D
:1014E800084B4FF460525B6892FAA2F2B2FA82F2A9
:1014F80003F46053D340044AD35C044A1068D840CC
:10150800704700BF001002404E410008080000204C
:1015180003682DE9F347DF03044623D59B4DEB69A8
:10152800DE0000F1D780EB6943F08053EB61EB6993
:1015380003F080530193019B0126954F3B68D80522
:1015480040F1CA802B6A13F4407340F0DA802B6AAA
:10155800626823F4407313432B621EB1EB6923F0D6
:101568008053EB612068C30706D5884AA168136BCE
:1015780023F003030B431363870706D5834AE16807
:10158800136B23F440330B431363460706D57F4A96
:101598002169136B23F440230B431363850606D597
:1015A8007A4AE169136B23F010030B431363810339
:1015B80006D5764A616D536823F480030B43536064
:1015C800420606D5714A216A136B23F020030B43A8
:1015D8001363430306D56D4A616A136B23F0400316
:1015E8000B431363070706D5684A6169136B23F435
:1015F80040130B431363C60606D5644AA169136BEF
:1016080023F440030B431363850506D55F4A216B1A
:10161800536823F400030B435360010606D55B4A65
:10162800A16AD36A23F4F8730B43D362C20506D5C3
:10163800564AE16AD36A23F478530B43D362C3044E
:1016480006D5524A616B136B23F480730B43136303
:10165800870406D54D4A216C136B23F400730B43A2
:101668001363C60206D5494AA16B136B23F0807336
:101678000B431363850206D5444AE16B136B23F0D1
:1016880000730B431363410206D5404A616C136B28
:1016980023F480630B431363020206D53B4AA16C13
:1016A800136B23F400630B431363C30106D5374A56
:1016B800E16C136B23F400530B43136310F00070B9
:1016C8001CD0324A216D136B23F400430B43136380
:1016D800002013E0002630E73B6843F480733B604A
:1016E800FFF70AFA80463B68D9053FF52BAFFFF7AD
:1016F80003FAA0EB08006428F5D9032002B0BDE87E
:10170800F087626802F4407293423FF420AF296A7E
:101718004FF4803321F4407093FAA3F2DFF874E0B9
:10172800B2FA82F2724492000127176093FAA3F387
:10173800B3FA83F373449B0000221A60CA07286235
:101748007FF505AFFFF7D8F94FF002088246C1468A
:1017580098FAA8F398FAA8F3A3B12A6A99FAA9F310
:10176800B3FA83F303F01F0307FA03F313427FF47A
:10177800EEAEFFF7C1F941F28833A0EB0A009842B8
:10178800E6D9BAE798FAA8F36A6AE7E700100240D0
:101798000070004000819010036A23F00103036287
:1017A800036A70B5446882690D6822F4803222F0B9
:1017B80073022A438D6823F002032B431F4DA8426E
:1017C80013D005F50065A8420FD005F54065A8427D
:1017D8000BD005F58065A84207D005F58065A842BD
:1017E80003D005F50065A84222D1CD6823F008038F
:1017F8002B43124DA84223F0040313D005F50065CE
:10180800A8420FD005F54065A8420BD005F58065C4
:10181800A84207D005F58065A84203D005F5006504
:10182800A84205D124F440758E694C6934432C4391
:10183800446082614A684263036270BD002C0140C3
:10184800036A23F480730362036A70B54468C2694B
:101858000D6822F4803222F073022A438D6823F443
:10186800007343EA05231A4DA84207D005F5006521
:10187800A84203D005F5E055A8420DD1CD6823F460
:10188800006343EA0523124DA84223F4806312D073
:1018980005F50065A8420ED00E4DA8420BD005F5FF
:1018A8008065A84207D005F58065A84203D005F5F4
:1018B8000065A84206D124F440558E694C6934432A
:1018C80045EA04144460C2614A68C263036270BD99
:1018D800002C014000400140036A23F48053036256
:1018E800036A30B54468C2690D6822F0807222F438
:1018F800E64242EA05228D6823F4005343EA0533A1
:10190800104DA84213D005F50065A8420FD005F583
:101918004065A8420BD005F58065A84207D005F5BB
:101928008065A84203D005F50065A84204D14D6939
:1019380024F4804444EA85144460C2614A6802641D
:10194800036230BD002C0140036A23F48033036234
:10195800036A30B54468426D0D6822F4803222F083
:1019680070022A438D6823F4003343EA0543114D7E
:10197800A84213D005F50065A8420FD005F54065CB
:10198800A8420BD005F58065A84207D005F580650B
:10199800A84203D005F50065A84204D14D6924F496
:1019A800803444EA0524446042654A6882650362DB
:1019B80030BD00BF002C0140036A23F4801303628A
:1019C800036A30B54468426D0D6822F0807222F4D3
:1019D800E04242EA05228D6823F4001343EA0553E6
:1019E800104DA84213D005F50065A8420FD005F5A3
:1019F8004065A8420BD005F58065A84207D005F5DB
:101A08008065A84203D005F50065A84204D14D6958
:101A180024F4802444EA8524446042654A68C26507
:101A2800036230BD002C0140704770477047704713
:101A380003681A69910710B504460FD5DA6892074A
:101A48000CD56FF002021A619B690122990702778F
:101A580000F0858000F094FE0023237723681A693C
:101A6800520710D5DA6850070DD56FF004021A61D5
:101A78009B69022213F4407F2277204675D000F03C
:101A88007FFE0023237723681A6911070FD5DA68C8
:101A980012070CD56FF008021A61DB6904229B0754
:101AA8002277204667D000F06BFE00232377236857
:101AB8001A69D00610D5DA68D1060DD56FF0100274
:101AC8001A61DB69082213F4407F2277204658D038
:101AD80000F056FE0023237723681A69D20708D539
:101AE800DA68D00705D56FF001021A612046FFF7C2
:101AF8009BFF23681A69110608D5DA68120605D50E
:101B08006FF080021A61204600F0DBFB23681A6937
:101B1800D00508D5DA68110605D56FF480721A6108
:101B2800204600F0CFFB23681A69520608D5DA6808
:101B3800500605D56FF040021A612046FFF777FF7F
:101B480023681A69910622D5DA6892061FD56FF0C4
:101B5800200220461A61BDE8104000F0B1BBFFF733
:101B680064FF2046FFF762FF76E7FFF75EFF204637
:101B7800FFF75CFF85E7FFF758FF2046FFF756FFA2
:101B880093E7FFF752FF2046FFF750FFA2E710BD8B
:101B9800324A0368904212D0B0F1804F0FD0A2F5BC
:101BA800943290420BD002F58062904207D002F541
:101BB8009632904203D002F5E052904215D14A681D
:101BC80023F070031343254A90421DD0B0F1804F93
:101BD8001AD0A2F59432904216D002F58062904253
:101BE80012D002F5963290420ED01D4A90420BD088
:101BF80002F58062904207D002F58062904203D0DD
:101C080002F50062904203D1CA6823F4407313437B
:101C18004A6923F08003134303608B68C3620B682F
:101C280083620E4B984213D003F5006398420FD09D
:101C380003F5406398420BD003F58063984207D0C0
:101C480003F58063984203D003F50063984201D1FD
:101C58000B69036301234361704700BF002C0140F7
:101C68000040014010B50446A0B190F83D3003F0A3
:101C7800FF021BB980F83C2002F0E8F8022384F840
:101C88003D302068211DFFF783FF012384F83D3094
:101C9800002010BD012010BD10B50446A0B190F879
:101CA8003D3003F0FF021BB980F83C2002F01EF81B
:101CB800022384F83D302068211DFFF769FF0123C6
:101CC80084F83D30002010BD012010BD10B5044639
:101CD800A0B190F83D3003F0FF021BB980F83C201A
:101CE80002F03AF8022384F83D302068211DFFF7FE
:101CF8004FFF012384F83D30002010BD012010BDA6
:101D0800036A23F010030362036A70B544688269AA
:101D18000D6822F0807222F4E64242EA05228D68BC
:101D280023F0200343EA05131A4DA84207D005F50E
:101D38000065A84203D005F5E055A8420DD1CD684D
:101D480023F0800343EA0513124DA84223F0400311
:101D580012D005F50065A8420ED00F4DA8420BD051
:101D680005F58065A84207D005F58065A84203D02F
:101D780005F50065A84206D124F440658E694C69D2
:101D8800344345EA8404446082614A68826303629A
:101D980070BD00BF002C01400040014038B590F8EC
:101DA8003C30012B04464FF0020010D00123082AD2
:101DB80084F83C3084F83D0043D009D8FAB1042AAD
:101DC8002ED00123002084F83D3084F83C0038BD33
:101DD800102A47D0142A56D00C2AF2D12068FFF7CF
:101DE8007BFD23680969DA6942F40062DA61DA691D
:101DF80022F48062DA61DA6942EA012230E020687E
:101E0800FFF7CAFC236809699A6942F008029A61D7
:101E18009A6922F004029A619A690A439A61D0E7A2
:101E28002068FFF76DFF236809699A6942F4006228
:101E38009A619A6922F480629A619A6942EA012257
:101E4800ECE72068FFF7FCFC23680969DA6942F0CF
:101E58000802DA61DA6922F00402DA61DA690A430F
:101E6800DA61AEE72068FFF76FFD236809695A6DEC
:101E780042F008025A655A6D22F004025A655A6DFA
:101E88000A435A659DE72068FFF796FD23680969AC
:101E98005A6D42F400625A655A6D22F480625A659E
:101EA8005A6D42EA0122ECE770B5046A184E24F034
:101EB80001040462B0428469056A16D0B0F1804F0B
:101EC80013D0A6F59436B0420FD006F58066B0421E
:101ED8000BD006F59636B04207D006F54066B042FC
:101EE80003D006F58056B0420FD124F003042243F4
:101EF8001B0122F0F002DBB225F00A0501F00A010D
:101F08001A4329438261016270BD44F00102EFE780
:101F1800002C0140F8B590F83C30012B04460D46E2
:101F28004FF0020019D0012384F83C3084F83D00BA
:101F3800A2B9CB68206806C9FFF7B6FF2368A9686D
:101F48009A6922F00C029A619A690A439A610123FC
:101F5800002084F83D3084F83C00F8BD042A8E68DF
:101F68002368E86882C91FD11A6A22F010021A622F
:101F78009A691D6A22F4407242EA0722000380B27D
:101F880022F470420901024301F0A00125F0A000EB
:101F980001439A6119629A6922F440629A619A69C6
:101FA80042EA06269E61D2E7082A1A6A1CD122F460
:101FB80080721A62DA691D6A22F003023A4300014C
:101FC800C0B222F0F0020902024301F4206125F4B4
:101FD80020600143DA611962DA6922F00C02DA61E1
:101FE800DA691643DE61B2E722F480521A62DA69CE
:101FF8001D6A22F4407242EA0722000322F470426A
:1020080080B20903104301F4204125F42042114312
:10201800D8611962DA6922F44062DA61DA6942EA5F
:102028000626DFE7036A01F01F0110B501248C4082
:1020380023EA04030362036A8A401A43026210BD5A
:1020480010B5044601220068FFF7ECFF2368154A23
:10205800934221D002F5006293421DD002F54062FE
:10206800934219D002F58062934215D002F580623E
:10207800934211D002F5006293420DD099680A4A42
:102088000A40062A06D0B2F5803F03D01A6842F00B
:1020980001021A60002010BD5A6C42F400425A64D2
:1020A800ECE700BF002C01400700010010B5044612
:1020B80000220068FFF7B6FF23681C4A934213D03A
:1020C80002F5006293420FD002F5406293420BD0B2
:1020D80002F58062934207D002F58062934203D0F2
:1020E80002F5006293420DD1196A41F211121142B0
:1020F80008D1196A40F24442114202BF5A6C22F4D4
:1021080000425A64196A41F21112114208D1196A3F
:1021180040F24442114203D11A6822F001021A60C7
:10212800012384F83D30002010BD00BF002C014081
:1021380010B504460C290DD8DFE801F0070C0C0C8B
:102148001F0C0C0C240C0C0C29000268D36843F0FB
:102158000203D36001222068FFF764FF22680E4B58
:1021680091680B40062B06D0B3F5803F1EBF13685D
:1021780043F001031360002010BD0268D36843F0E8
:102188000403E6E70268D36843F00803E1E702685E
:10219800D36843F01003DCE70700010090F83C30F7
:1021A800012B30B54FF0020340D080F83D30204D70
:1021B80003680122AB4280F83C205A689C6807D02B
:1021C80005F50065AB4203D005F5E055AB4203D1F8
:1021D8004D6822F470022A430D6822F070022A43E7
:1021E8005A60134A934216D0B3F1804F13D0A2F528
:1021F800943293420FD002F5806293420BD002F5DD
:102208009632934207D002F54062934203D002F51A
:102218008052934204D1896824F080020A439A606C
:10222800012380F83D30002380F83C30184630BD4B
:10223800002C014090F83C30012B10B53CD0CB6805
:102248008A681E4C23F4407313434A6823F480635E
:1022580013430A6823F4006313430A6923F4805381
:1022680013434A6923F4005313438A6A23F48043CF
:1022780013438A6923F4702343EA02430268A242A3
:1022880007D004F50064A24203D004F5E054A2424A
:102298000CD14C6A23F4700343EA0453CC69096AED
:1022A80023F08073234323F000730B43536400230C
:1022B80080F83C30184610BD022010BD002C0140AB
:1022C80070477047704700000268816838B5044657
:1022D800C369006915680143606901437A48194375
:1022E8002840014311605168E068256A21F4405193
:1022F800014351609068A16920F43060294301438B
:10230800916072498A4211D1714A7249126B02F086
:102318000302B3F5004F8A5C5AD0082A26D8DFE8B2
:1023280002F0A1A7AA25BD252525C0006A498A4231
:102338002AD1674A126B02F44032B2F5803F00F0AE
:10234800B58015D8DAB9B3F5004F40F08B80FFF7A8
:10235800AFF86268530803EB4000B0FBF2F080B2BC
:10236800A0F110024FF6EF739A426FD9012075E081
:10237800B2F5003F00F0A080B2F5403F46D0B3F57B
:10238800004FF3D01022C8E754498A420FD1504A6F
:10239800126B02F44022B2F5802F00F08780D1D969
:1023A800B2F5002F00F08880B2F5402FE6E74C49DF
:1023B8008A4237D1464A126B02F44012B2F5801FA6
:1023C80074D01DD8002ABED0B3F5004FCED110224C
:1023D800082ACBD801A353F822F000BF57230008DE
:1023E8004F2400081B24000875230008BB2400089C
:1023F800752300087523000875230008C724000802
:10240800B2F5001F58D0B2F5401FDDD1B3F5004F2B
:1024180031D16368580800F5740000F51050B0FB1E
:10242800F3F09CE72F498A42A0D1294A126B02F4A3
:102438004002B2F5800F39D084D9B2F5000F3BD0F5
:10244800B2F5400F9AE7FFF74BF882E720F00F0349
:102458002268C0F342001843D0600020002323669E
:10246800636638BDFFF724F8636800EB530008E0A3
:10247800FFF736F8F8E76368580800F5F40000F548
:102488009050B0FBF3F080B2A0F110024FF6EF735A
:102498009A423FF66BAF2368D860DEE7FEF72EFF5F
:1024A800E2E76368580800F50040EAE7B3F5004F33
:1024B800F4D1FEF723FF4CE7B3F5004FF1D1636881
:1024C800580800F58030AAE7F369FFEF00380140AB
:1024D8000010024024410008004400400048004029
:1024E800004C004000500040436ADA0710B506D59A
:1024F8000168846A4A6822F4003222434A609C07D1
:1025080006D50168C46A4A6822F4803222434A60C8
:10251800590706D50168046B4A6822F480222243D1
:102528004A601A0706D50168446B4A6822F40042DB
:1025380022434A60DC0606D50168846B8A6822F467
:10254800805222438A60990606D50168C46B8A685E
:1025580022F4005222438A605A060FD50168046C9F
:102568004A6822F480122243B4F5801F4A6005D1DC
:102578004A68446C22F4C00222434A601B0606D50E
:102588000268816C536823F400230B43536010BD29
:102598002DE9F041069D04460F46164698462168E7
:1025A800CA6937EA02030CBF01220022B24202D0F4
:1025B8000020BDE8F081681CF2D0FEF79DFAA0EB80
:1025C800080085422068036800D37DB923F4D073DE
:1025D8000360836823F00103836020236367A36794
:1025E800002384F870300320BDE8F0815A07D6D55F
:1025F800C3691B05D3D54FF400630362036823F452
:10260800D0730360836823F001038360202363672A
:10261800A367E367E4E72DE9F7439846436F202B68
:1026280004460E4691464BD1002947D0002A45D092
:1026380090F87030012B43D0012380F870300025CA
:102648002123C5674367FEF757FAA368A4F850909B
:10265800B3F5805F0746A4F8529003D123690BB9FC
:1026680035461E46B4F85220CDF8008092B23B465B
:102678004AB940212046FFF78BFF50B920236367F2
:1026880084F8700006E0002280212046FFF780FFD2
:1026980018B1032003B0BDE8F08322685EB935F8AD
:1026A800023BC3F308031385B4F85230013B9BB2D5
:1026B800A4F85230D6E716F8013BF4E70120E9E721
:1026C8000220E7E773B504460026C667FEF714FA4A
:1026D80023681B681A07054615D423681B685B071F
:1026E8000AD56FF07E43009300222B464FF48001F9
:1026F8002046FFF74DFF90B920230020636784F838
:102708007000A3670CE06FF07E43009332460346E7
:102718004FF400112046FFF73BFF0028DDD00320CF
:1027280002B070BD10B5044640B3436F1BB980F8C2
:10273800703001F02DFC226824236367136823F0AE
:10274800010313602046FFF7BFFD012816D0636A16
:1027580013B12046FFF7C8FE23685A6822F4904256
:102768005A609A6822F02A029A601A6842F00102B6
:1027780020461A60BDE81040FFF7A4BF012010BD35
:1027880038B50368B3F1804F05461ED101214FF0DB
:102798009040FEF705FB404C0128236831D1002208
:1027A8005A6202214FF09040FEF7FAFA0128236896
:1027B80036D100225A624FF480613848FEF7F0FAA9
:1027C800012823683BD100225A622A68344B9A4276
:1027D80061D14FF400614FF09040FEF7E1FA314CBF
:1027E800012823683AD100225A624FF480514FF0F1
:1027F8009040FEF7D5FA012823683ED100225A629C
:1028080038BD586AFDF736FE0022274BFDF7C2FF98
:10281800264B0022FDF794FE254BC3E90001C0E7D3
:10282800586AFDF727FE00221F4BFDF7B3FF1F4B29
:102838000022FDF785FE1F4BC3E90001BBE7586A7C
:10284800FDF718FE0022184BFDF7A4FF174B0022D6
:10285800FDF776FE184BC3E90001B6E7586AFDF7A5
:1028680009FE0022104BFDF795FF104B0022FDF7E3
:1028780067FE124BC3E90001B7E7586AFDF7FAFD96
:102888000022094BFDF786FF084B0022FDF758FE92
:102898000B4BC3E9000138BD580200200004004872
:1028A800000800400801002000003D400000E03F13
:1028B8004800002040000020580000205000002060
:1028C80060000020064B1A685223D3630023136468
:1028D800044A12685363044B1B6855225A637047B5
:1028E800D80100201803002048010020064B1A6870
:1028F8004D23D36300231364044A12685363044BC3
:102908001B6850225A637047D80100201803002022
:1029180048010020064B1A684823D3630023136438
:10292800044A12685363044B1B684B225A6370476E
:10293800D80100201803002048010020064B196820
:1029480050220023CA630B64044909684A63044A95
:1029580012685363704700BFD80100201803002095
:1029680048010020064B1A685023D36300231364E0
:10297800044A12685363044A12685363704700BFDD
:10298800D80100201803002048010020064B1968D0
:1029980000225023CA630B64044909684A63044A45
:1029A80012685363704700BFD80100201803002045
:1029B80048010020064B1A680023D3631364054AB4
:1029C80012685363044B1B6850225A63704700BF58
:1029D800D80100201803002048010020064B196880
:1029E80064220023CB630A64044909684A63044AE1
:1029F80012685363FEF786B8D80100201803002038
:102A080048010020074B1A6864210023D36311642E
:102A1800054A126850215163044A12685363FEF74D
:102A280071B800BFD8010020180300204801002019
:102A3800074B1A6850210023D3631164054A1268B2
:102A480064215163044A12685363FEF75BB800BF00
:102A5800D80100201803002048010020332808B5B9
:102A680000F0D68062DC1E2851D035DC152800F035
:102A7800CA801EDC0B2800F0BC8015DC002800F0A2
:102A8800B3800A2800F0BF806749684B0022D1E96B
:102A98000001FDF7C7FF002800F0C5804FF4FA7069
:102AA800BDE80840FFF79ABF0C2800F0A78014285B
:102AB800E8E7182800F0A78004DC162800F0A880B2
:102AC8001728DFE7192800F09E801A28DCD14FF478
:102AD800FA70FFF76FFFD7E7282807D00FDC212807
:102AE80004D008DC1F28F2D02028CDD14FF4FA708A
:102AF800FFF724FFC8E72228F8D02328F5E72B287A
:102B080005D009DC292800F083802A28BCD14FF49D
:102B1800FA70FFF73BFFB7E72D28F8D0F7DB32282C
:102B2800B2D14FF4FA70FFF7F5FEADE7B0F57D7F4F
:102B380077D01EDC4728F4D00ADC3D2868D003DCB7
:102B48003428C4D03C28EBE73E28C0D04628CCE740
:102B58005128E6D003DC4828D9D05028D6E7522897
:102B6800C4D040F2E93398428ED10122304B1A602A
:102B78008AE7B0F5836F35D019DC40F20B439842F1
:102B88004BD009DC40F2FF33984248D0B0F5806F53
:102B98007FF47AAF0422E9E740F20D43984213D05C
:102BA80040F2164398427FF46FAF0622DEE7B0F595
:102BB800856FEFD00ADC40F21D4398422FD040F2D7
:102BC800214398427FF460AF0722CFE7B0F5866FC4
:102BD80027D040F23A43984223D040F22C439842FF
:102BE8007FF452AF0822C1E74FF4FA70FFF76AFE8C
:102BF8004AE74FF47A70FFF705FF45E74FF47A701C
:102C0800FFF716FF40E74FF4FA70FFF76FFE3BE758
:102C18004FF4FA70FFF7A6FE36E70522A6E703226F
:102C2800A4E70222A2E708BD5803002000002E40B6
:102C38006C000020000000002DE9F843A64B1B683B
:102C480003BBA64CD4E90267D4E9002330463946D1
:102C5800FDF7C2FA0022A24BFDF702FF002800F0A0
:102C6800888332463B46D4E90401FDF7B5FA0022D1
:102C78009B4BFDF7F5FE002840F2E93008BF002025
:102C8800BDE8F883012B17D19649974B0022D1E96B
:102C98000001FDF7C7FE002840F01F839349924BBF
:102CA8000022D1E90001FDF7BDFE002814BF4FF452
:102CB8007D700A20BDE8F883022B40F0C3808C4F5A
:102CC8008C4BDFF818828C4ED7E90045002220464D
:102CD8002946FDF7C5FE68B10022864BD6E90001FA
:102CE800FDF7BEFE30B10022844BD8E90001FDF7A4
:102CF800B7FE58BB0022814BD8E90001FDF7B0FEB2
:102D0800002837D000227B4B20462946FDF7A8FE35
:102D180050B1D6E90223D6E90001FDF75DFA002299
:102D2800774BFDF79DFE88B90022724BD6E900016A
:102D3800FDF796FEF0B1D7E9022320462946FDF7B4
:102D48004BFA00226E4BFDF78BFE98B1654B674935
:102D5800D3E90023D1E90001FDF73EFA0022624BD6
:102D6800FDF77EFE002840F2FF3018BF4FF4806068
:102D7800BDE8F883D6E9008922462B4640464946F5
:102D8800FDF72AFA00225D4BFDF76AFE30B3D7E95A
:102D98000289204642464B462946FDF743FE40B18C
:102DA800D7E9042320462946FDF73CFE002840F0D9
:102DB800988242464B4620462946FDF751FE002898
:102DC80000F09282D7E9042320462946FDF748FE01
:102DD800002814BF19201820BDE8F88342464B4646
:102DE80020462946FDF7F8F90022444BFDF738FE46
:102DF800002800F07C82D6E90245404622462B4650
:102E08004946FDF70FFE40B1D6E90423404649463E
:102E1800FDF708FE002840F06D8222462B4640460A
:102E28004946FDF71DFE002800F06782D6E9042315
:102E380040464946FDF714FE002814BF1720152008
:102E4800BDE8F883032B40F0A0802B4BD3E9004565
:102E58001FA3D3E9002320462946FDF701FE0028D9
:102E680040F04E821F49274B0022D1E90001FDF7AF
:102E7800F7FD1A4B0022D3E90067002848D0224BFF
:102E880030463946FDF7CEFD40B100221E4B2046A4
:102E98002946FDF7C7FD002840F0368200221B4B6B
:102EA80030463946FDF7DCFD002800F03082104935
:102EB800164B0022D1E90001FDF7D2FD002840F2AF
:102EC8000B4008BF2320BDE8F88300BFAFF30080A4
:102ED8000000000000C062406C0000205803002081
:102EE8000000F03F780000200000344088010020F6
:102EF800A000002000004E40B00100200000244047
:102F080000003E4000405540008041400080514054
:102F18009F4B30463946FDF7A3FD48B19D499E4B6E
:102F28000022D1E90001FDF79BFD002840F0F28165
:102F380000229A4B30463946FDF774FD80B10022D5
:102F4800964B20462946FDF76DFD48B19149944BB3
:102F58000022D1E90001FDF765FD002840F0DD8180
:102F680000228B4B30463946FDF75CFD002800F007
:102F7800D7810022864B20462946FDF753FD0028BD
:102F880014BF20201E20BDE8F883052B55D1854E9F
:102F9800D6E900457CA3D3E9002320462946FDF75E
:102FA8005FFD002840F0BF817F49804B0022D1E9B6
:102FB8000001FDF737FD002840F0B981D6E9028904
:102FC80022462B4640464946FDF706F90022784B33
:102FD800FDF746FD78B142464B4620462946FDF7A7
:102FE80021FD40B1D6E9042320462946FDF71AFD04
:102FF800002840F0A08142464B4620462946FDF76E
:10300800EBF800226A4BFDF72BFD002800F09681B3
:1030180042464B4620462946FDF722FD002800F08F
:103028008D81D6E9042320462946FDF719FD00289D
:1030380014BF34203220BDE8F883072B4FF000007E
:1030480022D1594BD3E900454FA3D3E900232046A9
:103058002946FDF705FD002840F073810022554BF5
:1030680020462946FDF7DEFC002840F06E814D49D8
:10307800494B0022D1E90001FDF7D4FC002814BF18
:1030880047204620BDE8F883042B40F09B80414B45
:10309800D3E900453CA3D3E9002320462946FDF7A0
:1030A800DFFC002840F054814349444B0022D1E919
:1030B8000001FDF7D5FC3C4B0022D3E9006728B39B
:1030C8003C4B30463946FDF7ADFC40B10022394B48
:1030D80020462946FDF7A6FC002840F03D81002245
:1030E800374B30463946FDF7BBFC002800F03781E6
:1030F8002C49334B0022D1E90001FDF7B1FC00282F
:1031080040F2164008BF2D20BDE8F883204B30461A
:103118003946FDF7A5FC48B122491F4B0022D1E9E9
:103128000001FDF79DFC002840F01C8100221B4B8C
:1031380030463946FDF776FC80B10022174B204611
:103148002946FDF76FFC48B11649154B0022D1E915
:103158000001FDF767FC002840F0078100220C4BB6
:1031680030463946FDF75EFC002800F00181002258
:10317800074B20462946FDF755FC002814BF2A2096
:103188002820BDE8F88300BF0000000000C06240AE
:1031980000004940A000002000004E4000003E40D2
:1031A80000004440B0010020580300200080464041
:1031B8000000F03F00804140880100200040554059
:1031C80000805140062B52D1DFF8C481D8E9004570
:1031D80069A3D3E9002320462946FDF741FCC146EF
:1031E800002865D16649674B0022D1E90001FDF747
:1031F80019FC002860D1D8E9026722462B463046E0
:103208003946FCF7E9FF00225F4BFDF729FC70B156
:1032180032463B4620462946FDF704FC38B1D8E93A
:10322800042320462946FDF7FDFB002848D13246F5
:103238003B4620462946FCF7CFFF0022524BFDF7BC
:103248000FFC00283FD032463B4620462946FDF772
:1032580007FC002837D0D9E9042320462946FDF782
:10326800FFFB002814BF3E203C20BDE8F883082B54
:103278007FD1434BD3E900453FA3D3E90023204640
:103288002946FDF7EDFB08BB0022404B20462946A6
:10329800FDF7C8FBF0B93E493E4B0022D1E90001D9
:1032A800FDF7C0FB002814BF51205020BDE8F8836B
:1032B80040F22C40BDE8F8834FF48560BDE8F88300
:1032C8003D20BDE8F8833C20BDE8F88340F23A4051
:1032D800BDE8F8835220BDE8F8834FF47D70BDE85F
:1032E800F8831A20BDE8F8831820BDE8F883142075
:1032F800BDE8F8831620BDE8F8831520BDE8F883FB
:1033080040F20D40BDE8F8832220BDE8F883232071
:10331800BDE8F8831F20BDE8F8832120BDE8F883C5
:103328001E20BDE8F88340F22140BDE8F88340F252
:103338001D40BDE8F8833320BDE8F8833220BDE89E
:10334800F8834FF48660BDE8F8834820BDE8F88329
:103358004FF48360BDE8F8832C20BDE8F8832D2066
:10336800BDE8F8832920BDE8F8832B20BDE8F88361
:103378002820BDE8F88300BF0000000000C06240BC
:1033880058030020008046400000F03F0080414084
:10339800A000002000004E40244B25482549264A1D
:1033A80010B51C68254B013C072C3CD8DFE804F01D
:1033B800040A111F2C2E3037002404600C6014609E
:1033C8001C6010BD03240C600021046011601960AA
:1033D80010BD0024046001200860194909681E39DD
:1033E80081420DD80021116002221A6010BD01240B
:1033F800046000200860124909682839A142F1D800
:10340800022111600022F0E70224DCE70124DAE758
:1034180000240460032008601460186010BD0324B1
:1034280004600020F7E70224C7E700BF6C00002013
:103438002C0000203400002030000020380000203C
:103448006800002008B5434B1B68032B09D8DFE848
:1034580003F01A0210224FF480614FF09040FDF7FC
:10346800AAFC3D4B1B68032B1CD8DFE803F02C1685
:1034780023334FF0904001224FF48061FDF796FC12
:103488000A20FDF73FFB00224FF480614FF0904087
:10349800FDF78CFCE5E70122F6E740214FF090406C
:1034A800FDF789FC2D4B1B68032B1AD8DFE803F0C6
:1034B8002A1421314FF0904001224021FDF776FC7B
:1034C8000A20FDF71FFB002240214FF09040FDF736
:1034D8006DFCE7E70122F7E74FF480512048FDF73C
:1034E8006AFC204B1B68032B32D8DFE803F0261454
:1034F8001C2F1B4801224FF48051FDF757FC0A206E
:10350800FDF700FB00224FF480511548FDF74EFCF3
:10351800E7E70122F7E74FF480714FF09040BDE8EC
:103528000840FDF748BC4FF0904001224FF48071ED
:10353800FDF73CFC0A20FDF7E5FA00224FF4807104
:103548004FF09040BDE80840FDF730BC0122F5E798
:1035580008BD00BF2C0000203400002038000020E7
:10356800000800483000002010B5A6B0282200212D
:1035780006A800F0AFFD1422002101A800F0AAFD62
:103588005822002110A800F0A5FD0223069301236C
:10359800099306A8102300240A93FDF713FC0F23B0
:1035A800019321464FF4806301A804930593029484
:1035B8000394FDF7CFFE074B109310A813941D94A6
:1035C8002294239420941E941F94FDF7A1FF26B003
:1035D80010BD00BF0230B0012DE9F04F9BB0FDF7E0
:1035E8006DFAFFF7C1FF142200210FA800F072FD49
:1035F800B54BB64D5A69DFF8F482DFF8F4B242F4FD
:1036080000225A615A6902F400220292029A5A6907
:1036180042F400325A615A6902F400320392039A62
:103628005A6942F480225A615B6903F48023049347
:1036380000224FF4A8614FF09040049BFDF7B6FBC1
:10364800002241F21001A248FDF7B0FB012220211F
:103658009F480024FDF7AAFB01264FF4A8630FA991
:103668004FF090400F93109611941294FDF7C8FAFA
:1036780041F230030FA996480F93109611941294B3
:10368800FDF7BEFA21461C2208A805940694079463
:1036980000F020FD21462C220FA800F01BFD8D4ACA
:1036A800AC604F2385E80C00284641F65733EB60A1
:1036B8002C616C61AC61FEF7EFFA05A928464FF062
:1036C8006009059406940794FEF768FD224608A948
:1036D8002846CDF8209009960A940B940C940D94E2
:1036E8000E94FEF75BFB042208A92846FEF756FB5A
:1036F800082208A92846FEF751FB4FF400530FA9EA
:10370800149328464FF0007317930F941094119454
:10371800129413941594169418941994FEF78AFD2C
:10372800284600F0B9FB6C4D0894102221460FA8DA
:103738004FF0070A09940A9400F0CCFC4FF080433C
:1037480085E8080428464FF0FF33EB60AC602C6135
:10375800AC61FEF7BBFA08A928460A2708940A9420
:10376800FEF71CFD22460FA928460F9710961194C4
:103778001294FEF7CFFB04220FA92846FEF7CAFBD6
:1037880008220FA92846FEF7C5FB1C2221460FA8D0
:10379800089409940A9400F09DFC504BC8F808401E
:1037A80088E8080440466423C8F80C30C8F810407C
:1037B800C8F81840FEF770FA08A9404608940A9419
:1037C800FEF7ECFC08220FA94046CDF83C90109477
:1037D80011941394FEF7E2FA0C220FA94046FEF763
:1037E800DDFA404600F058FB214610220FA8089445
:1037F80009940A9400F06EFC394ACBF808408BE82B
:10380800040458464FF6FF72CBF80C20CBF8104052
:10381800CBF81840FEF75AFA08A9584608940A94B3
:10382800FEF7BCFC22460FA958460F971096119434
:103838001294FEF76FFB04220FA95846FEF76AFBA5
:1038480021461C2208A805940694079400F042FC1F
:1038580021462C220FA8234F00F03CFC224ABC60D2
:103868004F2387E80C00384641F65733FB603C612C
:103878007C61BC61FEF710FA05A9384605940694E8
:103888000794FEF78BFC224608A93846CDF820900D
:1038980009960A940B940C940D940E94FEF77EFAF4
:1038A800042208A93846FEF779FA4FF400530FA905
:1038B800149338464FF0007317930F941094119493
:1038C8001294139416E000BF001002401802002062
:1038D80000080048002C0140580200200004004065
:1038E80000080040C800002000340140D801002032
:1038F800080100201594169418941994FEF79AFC60
:10390800384600F0C9FA21461C2208A8B64FB74E1F
:1039180000F0E0FB21462C220FA800F0DBFBB44AA4
:10392800BC606423384687E80404FB603C617C6122
:10393800BC61FEF797F93846FEF7AEF9224608A9AA
:103948003846CDF8209009940A940B940C940D9461
:103958000E94FEF723FA4FF400530FA93846149338
:103968000F94109411941294139415941994FEF7CB
:1039780061FC384600F090FA21461C2208A800F0A5
:10398800A9FB21462C220FA800F0A4FB994AB46099
:103998006423304686E80404F36034617461B461DA
:1039A800FEF760F93046FEF777F9224608A9304657
:1039B800CDF8209009940A940B940C940D940E94CD
:1039C800FEF7ECF94FF400530FA930461493DFF8D3
:1039D8006C920F9410941194129413941594199452
:1039E800FEF728FC304600F057FA8349C9F808402A
:1039F8004FF4E1324FF00C0A484689E80600C9F84E
:103A08000C40C9F81040C9F814A0C9F81840C9F802
:103A18001C40C9F82040C9F82440FEF783FE08215D
:103A28004046FEF70DFB51464046FEF709FB21468E
:103A38003846FEF705FB21463046FEF701FB2146D6
:103A48002846FEF775FB04212846FEF771FB08217E
:103A58002846FEF76DFB21465846FEF769FB042110
:103A68005846FEF765FB40F6FF7315226349644C20
:103A7800644D654E4846FEF7CEFD6448644958A338
:103A8800D3E9002304F1280EAB4682460F46E4E84A
:103A980002237445E5E80223E0E80223E1E8022373
:103AA800E6E80223F3D100235A4D5B4E0193DFF879
:103AB80090E15A485A495B4ADFF888C1234653E9DE
:103AC800048963E902897EE90289CEE9028970E9FD
:103AD8000289C0E9028971E90289C1E9028972E9AA
:103AE80002896345C2E90289E9D100212846FEF727
:103AF800A7FA4620FDF706F84B4BD3E9008938A30F
:103B0800D3E9002340464946FCF7AAFF002800F005
:103B1800BE80DAE90223CAE9002300212846FEF71D
:103B2800C5FA04212846FEF78BFA4620FCF7EAFF7F
:103B38003E4BD3E900892AA3D3E9002340464946EE
:103B4800FCF78EFF2E4B002800F0A480D3E9022357
:103B58002B49C1E9002304212846FEF7A7FA0821CA
:103B68002846FEF76DFA4620FCF7CCFF304BD3E928
:103B780000891BA3D3E9002340464946FCF770FFA0
:103B8800002800F08A80DBE90223CBE90023082122
:103B98002846FEF78BFA00213046FEF751FA4620F8
:103BA800FCF7B0FF234BDFF86080D3E900010CA3DA
:103BB800D3E90023C8E90001FCF752FF18B1D8E99E
:103BC8000223C8E9002300213046FEF76FFA0421DA
:103BD8003046FEF735FA4620FCF794FF164B33E0E3
:103BE8000000000000C062401803002048010020C7
:103BF80000440140004801400044004028410008BA
:103C080058030020B001002078000020A000002008
:103C18008801002018020020C8000020C0000020F1
:103C2800A801002098000020480000204000002043
:103C3800580000205000002060000020980200205A
:103C4800D001002060030020D3E9008917A3D3E93D
:103C5800002340464946FCF703FF08B3D7E902238F
:103C6800C7E9002304213046FEF720FA019B0133FF
:103C78000A2B01937FF71BAFFEF7DEFF0A4B186094
:103C8800FEF7ECFEFFF788FBFFF7DCFB0FE7CAE95E
:103C9800008942E7C3E900895DE7CBE9008976E757
:103CA800C7E90089DEE700BF6800002000000000C7
:103CB80000C062400C4B07B59A6942F001029A6154
:103CC8009A6902F001020092009ADA6942F0805281
:103CD800DA61DB6903F0805301930720019BFCF74D
:103CE80025FF03B05DF804FB001002400368164A84
:103CF800934284B00BD1154B9A6942F400629A61E1
:103D08009B6903F400630193019B04B07047104A58
:103D180093420AD10D4BDA6942F00202DA61DB699B
:103D280003F002030293029BEFE70A4A9342ECD1A5
:103D3800064B9A6942F400529A619B6903F4005356
:103D48000393039BE1E700BF002C014000100240F1
:103D5800000400400034014030B514228BB0044602
:103D680000210DEB020000F0B5F92368B3F1804F94
:103D78003DD103F504330224DA6942F00102DA6125
:103D8800DA6902F001020092009A5A6942F400329C
:103D98005A615A6902F400320192019A5A6942F44E
:103DA80080225A615B69069403F480230293029B84
:103DB8000125032305A94FF0904005930995FCF7C9
:103DC8001FFF4FF48063069405A900241C4805933F
:103DD800079408940995FCF713FF1C2022462146F6
:103DE800FCF7B6FE1C20FCF7E7FE0BB030BD154A09
:103DF8009342FAD1144BDA6942F00402DA61DA69C3
:103E080002F004020392039A5A6942F400325A619A
:103E18005B6903F400330493049B4FF4C053059388
:103E28000223069305A90A234FF090400993FCF753
:103E3800E7FE00221E201146FCF78AFE1E20D2E76C
:103E480000040048000800400010024003680F4AC0
:103E5800934282B00BD10E4B9A6942F400329A61B8
:103E68009B6903F400330093009B02B07047094A32
:103E78009342FAD1064B9A6942F480229A619B696F
:103E880003F480230193019BEFE700BF0044014046
:103E9800001002400048014010B514228AB00446C0
:103EA80000210DEB020000F015F92368304A934217
:103EB80014D1304B5A6942F400225A615B6903F409
:103EC80000230093009B07230593022306932A48A7
:103ED800099305A9FCF794FE0AB010BD274A93423E
:103EE8000CD1244B5A6942F400225A615B6903F4ED
:103EF80000230193019B4FF44073E5E7204A934266
:103F08000FD11C4B5A6942F400225A615B6903F4D1
:103F180000230293029BC0230593022306930423E4
:103F2800D5E7184A934213D1124B5A6942F48022BA
:103F38005A615B6903F480230393039B4FF48073F6
:103F48000593022306930123099305A90E48C1E7A7
:103F58000E4A9342C0D1074B5A6942F480225A61F3
:103F68005B6903F480230493049B4FF40073E7E731
:103F7800002C0140001002400008004800040040E6
:103F8800003401400044014000040048004801405A
:103F980010B5044688B01422002103A800F09AF84E
:103FA8002268124B9A421ED103F5E63303A9DA6957
:103FB80042F40032DA61DA6902F400320192019ABD
:103FC8005A6942F400325A615B6903F40033029380
:103FD800029B0C230393022304934FF09040072382
:103FE8000793FCF70DFE08B010BD00BF0044004069
:103FF8007047FEE7FEE7FEE7FEE770477047704749
:10400800FCF76EBD0148FDF713BD00BF5802002044
:104018000148FDF70DBD00BF08010020054BD3F88E
:10402800882042F47002C3F888204FF000629A603A
:10403800704700BF00ED00E0DFF834D0002103E056
:104048000C4B5B58435004310B480C4B42189A42B6
:10405800F6D30B4A02E0002342F8043B094B9A428C
:10406800F9D3FFF7DBFF00F011F8FFF7B5FAFEE729
:104078000000012060410008000000200C00002022
:104088001000002080030020FEE7000070B50D4EF0
:104098000D4CA41BA4100025A54209D10B4E0C4CB5
:1040A80000F020F8A41BA4100025A54205D170BD7E
:1040B80056F8253098470135EEE756F825309847E9
:1040C8000135F2E7584100085841000858410008F6
:1040D8005C41000802440346934200D1704703F84C
:1040E800011BF9E7F8B500BFF8BC08BC9E4670474D
:0C40F800F8B500BFF8BC08BC9E4670473D
:1041040002030405060708090A0B0C0D0E0F101014
:104114000102030405060708090A0B0C0D0E0F1013
:1041240001040802636F6E6E656374696F6E2073B9
:104134007563636573732E0A0D00000000000000B0
:104144000000010203040607080900000000010240
:044154000304000060
:04415800BD0100089D
:04415C0099010008BD
:0C416000010000001000000000127A00B6
:04000005080040416E
:00000001FF
