:020000040800F2
:1000000000000120B940000871400008734000085A
:1000100075400008774000087940000800000000A3
:100020000000000000000000000000007B4000080D
:100030007D400008000000007F400008814000086B
:100040000941000809410008094100080941000868
:100050000941000809410008094100080941000858
:100060000941000809410008094100080941000848
:100070000941000809410008094100080941000838
:100080000941000809410008094100080941000828
:100090000941000809410008094100080941000818
:1000A0000941000809410008094100080941000808
:1000B00085400008094100089140000809410008F6
:1000C00009410008094100080941000809410008E8
:1000D00009410008094100080941000809410008D8
:1000E00009410008094100080941000809410008C8
:1000F00009410008094100080941000809410008B8
:10010000094100080000000000000000094100084B
:100110000941000809410008094100080941000897
:100120000941000809410008094100080941000887
:10013000094100080941000800000000000000001B
:1001400009410008094100080941000800000000B9
:10015000000000000000000000000000000000009F
:100160000941000809410008094100080941000847
:100170000941000809410008094100080941000837
:1001800009410008094100080000000000000000CB
:040190000941000819
:1001980010B5054C237833B9044B13B10448AFF3B9
:1001A80000800123237010BD100000200000000013
:1001B8006441000808B5034B1BB103490348AFF37A
:1001C800008008BD00000000140000206441000801
:1001D80081F0004102E000BF83F0004330B54FEAF0
:1001E80041044FEA430594EA050F08BF90EA020F5D
:1001F8001FBF54EA000C55EA020C7FEA645C7FEAF0
:10020800655C00F0E2804FEA5454D4EB5555B8BF12
:100218006D420CDD2C4480EA020281EA030382EA83
:10022800000083EA010180EA020281EA0303362D15
:1002380088BF30BD11F0004F4FEA01314FF4801CE8
:100248004CEA113102D0404261EB410113F0004FFA
:100258004FEA03334CEA133302D0524263EB4303B1
:1002680094EA050F00F0A780A4F10104D5F1200E4F
:100278000DDB02FA0EFC22FA05F2801841F10001AA
:1002880003FA0EF2801843FA05F359410EE0A5F17E
:1002980020050EF1200E012A03FA0EFC28BF4CF0AF
:1002A800020C43FA05F3C01851EBE37101F0004565
:1002B80007D54FF0000EDCF1000C7EEB00006EEB72
:1002C8000101B1F5801F1BD3B1F5001F0CD34908FC
:1002D8005FEA30004FEA3C0C04F101044FEA445253
:1002E80012F5800F80F09A80BCF1004F08BF5FEADA
:1002F800500C50F1000041EB045141EA050130BDBA
:100308005FEA4C0C404141EB010111F4801FA4F15C
:100318000104E9D191F0000F04BF01460020B1FAB1
:1003280081F308BF2033A3F10B03B3F120020CDAE9
:100338000C3208DD02F1140CC2F10C0201FA0CF0C7
:1003480021FA02F10CE002F11402D8BFC2F1200C2C
:1003580001FA02F120FA0CFCDCBF41EA0C019040E2
:10036800E41AA2BF01EB0451294330BD6FEA04042B
:100378001F3C1CDA0C340EDC04F11404C4F1200216
:1003880020FA04F001FA02F340EA030021FA04F328
:1003980045EA030130BDC4F10C04C4F1200220FA7F
:1003A80002F001FA04F340EA0300294630BD21FABD
:1003B80004F0294630BD94F0000F83F4801306BF83
:1003C80081F480110134013D4EE77FEA645C18BF77
:1003D8007FEA655C29D094EA050F08BF90EA020F0E
:1003E80005D054EA000C04BF1946104630BD91EA06
:1003F800030F1EBF0021002030BD5FEA545C05D109
:100408004000494128BF41F0004130BD14F5800447
:100418003CBF01F5801130BD01F0004545F0FE41BB
:1004280041F470014FF0000030BD7FEA645C1ABFF0
:10043800194610467FEA655C1CBF0B46024650EA27
:10044800013406BF52EA033591EA030F41F4002153
:1004580030BD00BF90F0000F04BF0021704730B5D9
:100468004FF4806404F132044FF000054FF00001AE
:1004780050E700BF90F0000F04BF0021704730B56F
:100488004FF4806404F1320410F0004548BF404244
:100498004FF000013EE700BF42004FEAE2014FEA99
:1004A80031014FEA02701FBF12F07F4393F07F4F74
:1004B80081F06051704792F0000F14BF93F07F4FA6
:1004C800704730B54FF4607401F0004521F00041E9
:1004D80020E700BF50EA010208BF704730B54FF06F
:1004E80000050AE050EA010208BF704730B511F074
:1004F800004502D5404261EB41014FF4806404F1AC
:1005080032045FEA915C3FF4DCAE4FF003025FEA2D
:10051800DC0C18BF03325FEADC0C18BF033202EBB5
:10052800DC02C2F1200300FA03FC20FA02F001FA0F
:1005380003FE40EA0E0021FA02F11444C1E600BFAE
:1005480070B54FF0FF0C4CF4E06C1CEA11541DBF61
:100558001CEA135594EA0C0F95EA0C0F00F0DEF82C
:100568002C4481EA030621EA4C5123EA4C5350EA11
:10057800013518BF52EA033541F4801143F4801362
:1005880038D0A0FB02CE4FF00005E1FB02E506F0F3
:100598000042E0FB03E54FF00006E1FB03569CF048
:1005A800000F18BF4EF0010EA4F1FF04B6F5007F4E
:1005B80064F5407404D25FEA4E0E6D4146EB0606C0
:1005C80042EAC62141EA55514FEAC52040EA5E5049
:1005D8004FEACE2EB4F1FD0C88BFBCF5E06F1ED8F3
:1005E800BEF1004F08BF5FEA500E50F1000041EB2A
:1005F800045170BD06F0004646EA010140EA0200D7
:1006080081EA0301B4EB5C04C2BFD4EB0C0541EAF8
:10061800045170BD41F480114FF0000E013C00F30D
:10062800AB8014F1360FDEBF002001F0004170BD31
:10063800C4F10004203C35DA0C341BDC04F114044A
:10064800C4F1200500FA05F320FA04F001FA05F2D6
:1006580040EA020001F0004221F0004110EBD370A3
:1006680021FA04F642EB06015EEA430E08BF20EACF
:10067800D37070BDC4F10C04C4F1200500FA04F372
:1006880020FA05F001FA04F240EA020001F0004104
:1006980010EBD37041F100015EEA430E08BF20EA77
:1006A800D37070BDC4F1200500FA05F24EEA020EBF
:1006B80020FA04F301FA05F243EA020321FA04F0EE
:1006C80001F0004121FA04F220EA020000EBD370A5
:1006D8005EEA430E08BF20EAD37070BD94F0000FA5
:1006E8000FD101F00046400041EB010111F4801FD9
:1006F80008BF013CF7D041EA060195F0000F18BF8A
:10070800704703F00046520043EB030313F4801FC5
:1007180008BF013DF7D043EA0603704794EA0C0F7F
:100728000CEA135518BF95EA0C0F0CD050EA410695
:1007380018BF52EA4306D1D181EA030101F0004112
:100748004FF0000070BD50EA410606BF104619463A
:1007580052EA430619D094EA0C0F02D150EA013646
:1007680013D195EA0C0F05D152EA03361CBF104687
:1007780019460AD181EA030101F0004141F0FE4126
:1007880041F470014FF0000070BD41F0FE4141F4AA
:10079800780170BD70B54FF0FF0C4CF4E06C1CEAAA
:1007A80011541DBF1CEA135594EA0C0F95EA0C0F5F
:1007B80000F0A7F8A4EB050481EA030E52EA03351A
:1007C8004FEA013100F088804FEA03334FF080553B
:1007D80045EA131343EA12634FEA022245EA111568
:1007E80045EA10654FEA00260EF000419D4208BF19
:1007F800964244F1FD0404F5407402D25B084FEAC6
:100808003202B61A65EB03055B084FEA32024FF471
:1008180080104FF4002CB6EB020E75EB030E22BFCE
:10082800B61A754640EA0C005B084FEA3202B6EB8E
:10083800020E75EB030E22BFB61A754640EA5C003D
:100848005B084FEA3202B6EB020E75EB030E22BFCD
:10085800B61A754640EA9C005B084FEA3202B6EBCE
:10086800020E75EB030E22BFB61A754640EADC008D
:1008780055EA060E18D04FEA051545EA16754FEAEF
:1008880006164FEAC30343EA52734FEAC2025FEA0D
:100898001C1CC0D111F4801F0BD141EA00014FF09C
:1008A80000004FF0004CB6E711F4801F04BF01436D
:1008B8000020B4F1FD0C88BFBCF5E06F3FF6AFAE89
:1008C800B5EB030C04BFB6EB020C5FEA500C50F119
:1008D800000041EB045170BD0EF0004E4EEA11319C
:1008E80014EB5C04C2BFD4EB0C0541EA045170BDA3
:1008F80041F480114FF0000E013C90E645EA060EE7
:100908008DE60CEA135594EA0C0F08BF95EA0C0F14
:100918003FF43BAF94EA0C0F0AD150EA01347FF45C
:1009280034AF95EA0C0F7FF425AF104619462CE733
:1009380095EA0C0F06D152EA03353FF4FDAE104696
:10094800194622E750EA410618BF52EA43067FF4E7
:10095800C5AE50EA41047FF40DAF52EA43057FF477
:10096800EBAE12E74FF0FF3C06E000BF4FF0010C82
:1009780002E000BF4FF0010C4DF804CD4FEA410CE6
:100988007FEA6C5C4FEA430C18BF7FEA6C5C1BD0B3
:1009980001B050EA410C0CBF52EA430C91EA030F34
:1009A80002BF90EA020F0020704710F1000F91EA91
:1009B800030F58BF994208BF90422CBFD8176FEA5F
:1009C800E37040F0010070474FEA410C7FEA6C5C2D
:1009D80002D150EA013C07D14FEA430C7FEA6C5C34
:1009E800D6D152EA033CD3D05DF8040B704700BF60
:1009F8008446104662468C461946634600E000BFAE
:100A080001B5FFF7B7FF002848BF10F1000F01BD7F
:100A18004DF808EDFFF7F4FF0CBF012000205DF84A
:100A280008FB00BF4DF808EDFFF7EAFF34BF0120CF
:100A380000205DF808FB00BF4DF808EDFFF7E0FF68
:100A480094BF012000205DF808FB00BF4DF808EDB9
:100A5800FFF7CEFF94BF012000205DF808FB00BF20
:100A68004DF808EDFFF7C4FF34BF012000205DF802
:100A780008FB00BF38B50E4A0E4B054618784FF4F0
:100A88007A73B3FBF0F31068B0FBF3F000F0A2F850
:100A9800044658B90F2D09D8024629464FF0FF30B1
:100AA80000F056F8044B20461D6038BD012038BDC3
:100AB800080000200000002004000020074A08B5B4
:100AC800136843F010031360032000F02FF8002090
:100AD800FFF7D0FF03F02AF9002008BD00200240EC
:100AE800034A044B11681B780B441360704700BF1E
:100AF8007000002000000020014B1868704700BFFC
:100B08007000002038B50446FFF7F6FF631C1CBFD1
:100B1800054B1B78054618BFE418FFF7EDFF401B8F
:100B28008442FAD838BD00BF00000020074AD368C5
:100B380023F4E0631B041B0C43F0BF63000243F47F
:100B4800003300F4E0600343D360704700ED00E039
:100B5800174B30B5DC68C4F30224C4F10703251D24
:100B6800042B28BF0423062D4FF0010505FA03F3D3
:100B780003F1FF338CBF033C00241940A14005FA60
:100B880004F4013C2240002842EA01024FEA021222
:100B9800ADBF00F1604000F00F00064B00F561406A
:100BA800B5BFD2B2D2B21A5480F8002330BD00BF0C
:100BB80000ED00E014ED00E0002808DB4209012305
:100BC80000F01F0003FA00F0014B43F822007047C1
:100BD80000E100E00138B0F1807F0AD2064B074AF5
:100BE8005860F02182F823100020072298601A60CC
:100BF80070470120704700BF10E000E000ED00E002
:100C08002DE9F74FD1F80080DFF89091614A002371
:100C180038FA03F402D103B0BDE8F08F4FF0010EAB
:100C28000EFA03FE18EA0E0600F0A6804C6824F0BF
:100C38001007022F16D14FEAD30A00EB8A0A03F0F5
:100C4800070BDAF820504FEA8B0B4FF00F0C0CFA19
:100C58000BFC25EA0C0C0D6905FA0BF545EA0C05A9
:100C6800CAF820504FEA430A0325D0F800B005FA25
:100C78000AF5ED4304F0030C0BEA050B0CFA0AFC29
:100C8800013F4CEA0B0C012FC0F800C011D887684F
:100C980007EA050BCF6807FA0AFC4CEA0B078760DE
:100CA800476827EA0E0EC4F300179F4047EA0E076D
:100CB8004760C7683D408F6807FA0AF73D43C5603B
:100CC800E50059D5D9F8185045F00105C9F818506C
:100CD800D9F8185023F0030707F1804705F00105FC
:100CE80007F58037019503F0030C019DBD684FEAB5
:100CF8008C0C4FF00F0E0EFA0CFEB0F1904F25EA57
:100D08000E0E3BD0244DA8423AD005F58065A84286
:100D180038D005F58065A84236D005F58065A8422B
:100D280034D005F58065A84232D005F58065A84223
:100D380014BF0725062505FA0CF545EA0E05BD6022
:100D48001568F74314F4803F0CBF3D4035431560E8
:100D5800556814F4003F0CBF3D4035435560956815
:100D680014F4801F0CBF3D4035439560D568A4023C
:100D780054BF3D403543D560013349E70025DAE7E4
:100D88000125D8E70225D6E70325D4E70425D2E7CD
:100D98000525D0E700040140000400480010024087
:100DA8000369194214BF0120002070470AB181610C
:100DB80070478162704743690B4218BF090481611B
:100DC800704700002DE9F347054608B901205BE0AC
:100DD8000368DF0711D42B689E0700F18A802B680F
:100DE8001C0700F1FE802B68580700F14781A869AD
:100DF800002840F0DE81002046E0BE4C636803F026
:100E08000C03042B0AD0636803F00C03082B19D1D8
:100E1800636803F4C033B3F5803F13D14FF4003354
:100E280093FAA3F2216893FAA3F3B3FA83F303F0D6
:100E38001F03012202FA03F30B42CCD06B68002B8C
:100E4800C9D1C3E76B68B3F5803F20D1236843F469
:100E580080332360FFF750FE4FF4003680460127A9
:100E680096FAA6F3226896FAA6F3B3FA83F303F088
:100E78001F0307FA03F31342ADD1FFF73DFEA0EBC2
:100E880008006428ECD9032002B0BDE8F0870BBB4A
:100E9800236823F480332360236823F480232360AA
:100EA800FFF72AFE4FF400368046012796FAA6F38C
:100EB800226896FAA6F3B3FA83F303F01F0307FA3E
:100EC80003F3134287D0FFF717FEA0EB080064284E
:100ED800ECD9D8E7B3F5A02F236803D143F48023D6
:100EE8002360B3E723F480332360236823F480234B
:100EF800AFE7804C636813F00C0F0AD0636803F007
:100F08000C03082B25D1636803F4C033B3F5004FF5
:100F18001FD1022393FAA3F2216893FAA3F3B3FA39
:100F280083F303F01F03012202FA03F30B4203D0F9
:100F3800EB6893427FF44AAF2168F82393FAA3F34E
:100F4800B3FA83F22B69934021F0F802134323602C
:100F580045E7EA6801260AB396FAA6F3B3FA83F3DB
:100F680003F1845303F584139B0002271E60FFF7E7
:100F7800C3FD804697FAA7F3226897FAA7F3B3FA56
:100F880083F303F01F0306FA03F31342D4D1FFF7E8
:100F9800B3FDA0EB08000228ECD974E796FAA6F393
:100FA800B3FA83F303F1845303F584139B000227F8
:100FB8001A60FFF7A1FD804697FAA7F3226897FA0F
:100FC800A7F3B3FA83F303F01F0306FA03F31342FC
:100FD8003FF405AFFFF790FDA0EB08000228EBD91E
:100FE80051E76A69434E444901241AB394FAA4F3B9
:100FF800B3FA83F30B449B0002271C60FFF77CFDC8
:10100800804697FAA7F397FAA7F397FAA7F3726AB5
:1010180097FAA7F3B3FA83F303F01F0304FA03F371
:1010280013427FF4E0AEFFF767FDA0EB080002284B
:10103800E7D928E794FAA4F3B3FA83F30B449B00A7
:1010480002271A60FFF758FD804697FAA7F397FA28
:10105800A7F397FAA7F3726A97FAA7F3B3FA83F399
:1010680003F01F0304FA03F313423FF4BCAEFFF787
:1010780043FDA0EB08000228E7D904E71D4CE3690B
:10108800D90034D4E36943F08053E361E36903F0A2
:1010980080530193019B0126184F3B68DA052FD531
:1010A800AB68012B3DD1236A43F001032362FFF7AC
:1010B80023FD02278246B9464FF0010897FAA7F3A5
:1010C80097FAA7F3002B6CD0226A99FAA9F3B3FA1E
:1010D80083F303F01F0308FA03F3134258D0002EDA
:1010E8003FF485AEE36923F08053E3617FE6002691
:1010F800D2E700BF0010024020819010007000402D
:101108003B6843F480733B60FFF7F6FC80463B681E
:10111800DB05C5D4FFF7F0FCA0EB08006428F6D97E
:10112800B1E63BBB236A23F001032362236A23F061
:1011380004032362FFF7E0FC02278246B9464FF01A
:10114800010897FAA7F397FAA7F373B3226A99FAF3
:10115800A9F3B3FA83F303F01F0308FA03F3134266
:10116800BDD0FFF7C9FC41F28833A0EB0A009842D2
:10117800E7D988E6052B236A03D143F004032362E9
:1011880091E723F001032362236A23F004038DE728
:10119800FFF7B2FC41F28833A0EB0A0098428DD9E0
:1011A80071E697FAA7F3626A8FE797FAA7F3626A7C
:1011B800CDE7514A536803F00C03082B144600F09E
:1011C800828002284FF0807358D193FAA3F3B3FAC0
:1011D80083F303F1845303F584139B0000221A6000
:1011E800FFF78AFC4FF000778046012697FAA7F3AD
:1011F800226897FAA7F3B3FA83F303F01F0306FAFA
:1012080003F3134233D1E36A6A6A23F00F031343EB
:10121800E36262682B6AE96922F476120B4313438E
:1012280063604FF0807393FAA3F3B3FA83F303F187
:10123800845303F584139B004FF000751E60FFF77D
:101248005BFC0126074695FAA5F3226895FAA5F3F3
:10125800B3FA83F303F01F0306FA03F313427FF490
:10126800CAADFFF749FCC01B0228ECD90BE6FFF713
:1012780043FCA0EB08000228B8D904E693FAA3F3CC
:10128800B3FA83F303F1845303F584139B0000221C
:101298001A60FFF731FC4FF000750746012695FAF2
:1012A800A5F3226895FAA5F3B3FA83F303F01F03B5
:1012B80006FA03F313423FF49EADFFF71DFCC01B73
:1012C8000228ECD9DFE501283FF4DEAD5368D06A87
:1012D800EA6903F4C03191427FF478AD2A6A03F4D5
:1012E800701393427FF472AD6B6A00F00F00C01A5E
:1012F80018BF0120C8E500BF0010024011494B6823
:1013080003F00C02082A1AD14FF4701292FAA2F2D2
:101318000F20B2FA82F2C96A90FAA0F0B0FA80F00F
:1013280001F00F0103F47013D340C140064A074887
:10133800415C0748B0FBF1F1D05C48437047044872
:10134800704700BF001002407C4100088C41000833
:1013580000127A002DE9F0410D46044610B901202B
:10136800BDE8F0814D4A136803F007038B422FD381
:101378002268910737D4D2073DD4484A136803F04E
:1013880007039D4276D32268454D12F0040F7DD1A4
:10139800130706D56B68226923F4605343EAC20336
:1013A8006B60FFF7ABFF6B68F02292FAA2F2B2FA19
:1013B80082F203F0F003D3403A4AD35CD8403A4B68
:1013C80018603A4B1868FFF755FB0020BDE8F0811C
:1013D800136823F007030B431360136803F0070334
:1013E8009942BCD1C4E72E49A0684B6823F0F003AA
:1013F80003434B60BFE76268294E012A27D14FF4A7
:10140800003393FAA3F1316893FAA3F3B3FA83F3A1
:1014180003F01F0302FA03F30B42A0D0736823F012
:1014280003031A437260FFF767FB41F288380746E7
:101438007368626803F00C03B3EB820F9DD0FFF76B
:101448005BFBC01B4045F3D90320BDE8F081022AAD
:101458000CBF4FF00073022393FAA3F1306893FA9C
:10146800A3F3B3FA83F303F01F03012101FA03F393
:101478000342D2E7136823F007032B431360136872
:1014880003F007039D427FF46AAF7CE76B68E1686D
:1014980023F4E0630B436B607AE700BF002002404F
:1014A80000100240B6410008080000200400002097
:1014B800084B4FF4E0625B6892FAA2F2B2FA82F249
:1014C80003F4E063D340044AD35C044A1068D8406C
:1014D800704700BF00100240C64100080800002005
:1014E800084B4FF460525B6892FAA2F2B2FA82F2A9
:1014F80003F46053D340044AD35C044A1068D840CC
:10150800704700BF00100240C641000808000020D4
:1015180003682DE9F347DF03044623D59B4DEB69A8
:10152800DE0000F1D780EB6943F08053EB61EB6993
:1015380003F080530193019B0126954F3B68D80522
:1015480040F1CA802B6A13F4407340F0DA802B6AAA
:10155800626823F4407313432B621EB1EB6923F0D6
:101568008053EB612068C30706D5884AA168136BCE
:1015780023F003030B431363870706D5834AE16807
:10158800136B23F440330B431363460706D57F4A96
:101598002169136B23F440230B431363850606D597
:1015A8007A4AE169136B23F010030B431363810339
:1015B80006D5764A616D536823F480030B43536064
:1015C800420606D5714A216A136B23F020030B43A8
:1015D8001363430306D56D4A616A136B23F0400316
:1015E8000B431363070706D5684A6169136B23F435
:1015F80040130B431363C60606D5644AA169136BEF
:1016080023F440030B431363850506D55F4A216B1A
:10161800536823F400030B435360010606D55B4A65
:10162800A16AD36A23F4F8730B43D362C20506D5C3
:10163800564AE16AD36A23F478530B43D362C3044E
:1016480006D5524A616B136B23F480730B43136303
:10165800870406D54D4A216C136B23F400730B43A2
:101668001363C60206D5494AA16B136B23F0807336
:101678000B431363850206D5444AE16B136B23F0D1
:1016880000730B431363410206D5404A616C136B28
:1016980023F480630B431363020206D53B4AA16C13
:1016A800136B23F400630B431363C30106D5374A56
:1016B800E16C136B23F400530B43136310F00070B9
:1016C8001CD0324A216D136B23F400430B43136380
:1016D800002013E0002630E73B6843F480733B604A
:1016E800FFF70AFA80463B68D9053FF52BAFFFF7AD
:1016F80003FAA0EB08006428F5D9032002B0BDE87E
:10170800F087626802F4407293423FF420AF296A7E
:101718004FF4803321F4407093FAA3F2DFF874E0B9
:10172800B2FA82F2724492000127176093FAA3F387
:10173800B3FA83F373449B0000221A60CA07286235
:101748007FF505AFFFF7D8F94FF002088246C1468A
:1017580098FAA8F398FAA8F3A3B12A6A99FAA9F310
:10176800B3FA83F303F01F0307FA03F313427FF47A
:10177800EEAEFFF7C1F941F28833A0EB0A009842B8
:10178800E6D9BAE798FAA8F36A6AE7E700100240D0
:101798000070004000819010036A23F00103036287
:1017A800036A70B5446882690D6822F4803222F0B9
:1017B80073022A438D6823F002032B431F4DA8426E
:1017C80013D005F50065A8420FD005F54065A8427D
:1017D8000BD005F58065A84207D005F58065A842BD
:1017E80003D005F50065A84222D1CD6823F008038F
:1017F8002B43124DA84223F0040313D005F50065CE
:10180800A8420FD005F54065A8420BD005F58065C4
:10181800A84207D005F58065A84203D005F5006504
:10182800A84205D124F440758E694C6934432C4391
:10183800446082614A684263036270BD002C0140C3
:10184800036A23F480730362036A70B54468C2694B
:101858000D6822F4803222F073022A438D6823F443
:10186800007343EA05231A4DA84207D005F5006521
:10187800A84203D005F5E055A8420DD1CD6823F460
:10188800006343EA0523124DA84223F4806312D073
:1018980005F50065A8420ED00E4DA8420BD005F5FF
:1018A8008065A84207D005F58065A84203D005F5F4
:1018B8000065A84206D124F440558E694C6934432A
:1018C80045EA04144460C2614A68C263036270BD99
:1018D800002C014000400140036A23F48053036256
:1018E800036A30B54468C2690D6822F0807222F438
:1018F800E64242EA05228D6823F4005343EA0533A1
:10190800104DA84213D005F50065A8420FD005F583
:101918004065A8420BD005F58065A84207D005F5BB
:101928008065A84203D005F50065A84204D14D6939
:1019380024F4804444EA85144460C2614A6802641D
:10194800036230BD002C0140036A23F48033036234
:10195800036A30B54468426D0D6822F4803222F083
:1019680070022A438D6823F4003343EA0543114D7E
:10197800A84213D005F50065A8420FD005F54065CB
:10198800A8420BD005F58065A84207D005F580650B
:10199800A84203D005F50065A84204D14D6924F496
:1019A800803444EA0524446042654A6882650362DB
:1019B80030BD00BF002C0140036A23F4801303628A
:1019C800036A30B54468426D0D6822F0807222F4D3
:1019D800E04242EA05228D6823F4001343EA0553E6
:1019E800104DA84213D005F50065A8420FD005F5A3
:1019F8004065A8420BD005F58065A84207D005F5DB
:101A08008065A84203D005F50065A84204D14D6958
:101A180024F4802444EA8524446042654A68C26507
:101A2800036230BD002C0140704770477047704713
:101A380003681A69910710B504460FD5DA6892074A
:101A48000CD56FF002021A619B690122990702778F
:101A580000F0858000F094FE0023237723681A693C
:101A6800520710D5DA6850070DD56FF004021A61D5
:101A78009B69022213F4407F2277204675D000F03C
:101A88007FFE0023237723681A6911070FD5DA68C8
:101A980012070CD56FF008021A61DB6904229B0754
:101AA8002277204667D000F06BFE00232377236857
:101AB8001A69D00610D5DA68D1060DD56FF0100274
:101AC8001A61DB69082213F4407F2277204658D038
:101AD80000F056FE0023237723681A69D20708D539
:101AE800DA68D00705D56FF001021A612046FFF7C2
:101AF8009BFF23681A69110608D5DA68120605D50E
:101B08006FF080021A61204600F0DBFB23681A6937
:101B1800D00508D5DA68110605D56FF480721A6108
:101B2800204600F0CFFB23681A69520608D5DA6808
:101B3800500605D56FF040021A612046FFF777FF7F
:101B480023681A69910622D5DA6892061FD56FF0C4
:101B5800200220461A61BDE8104000F0B1BBFFF733
:101B680064FF2046FFF762FF76E7FFF75EFF204637
:101B7800FFF75CFF85E7FFF758FF2046FFF756FFA2
:101B880093E7FFF752FF2046FFF750FFA2E710BD8B
:101B9800324A0368904212D0B0F1804F0FD0A2F5BC
:101BA800943290420BD002F58062904207D002F541
:101BB8009632904203D002F5E052904215D14A681D
:101BC80023F070031343254A90421DD0B0F1804F93
:101BD8001AD0A2F59432904216D002F58062904253
:101BE80012D002F5963290420ED01D4A90420BD088
:101BF80002F58062904207D002F58062904203D0DD
:101C080002F50062904203D1CA6823F4407313437B
:101C18004A6923F08003134303608B68C3620B682F
:101C280083620E4B984213D003F5006398420FD09D
:101C380003F5406398420BD003F58063984207D0C0
:101C480003F58063984203D003F50063984201D1FD
:101C58000B69036301234361704700BF002C0140F7
:101C68000040014010B50446A0B190F83D3003F0A3
:101C7800FF021BB980F83C2002F024F9022384F803
:101C88003D302068211DFFF783FF012384F83D3094
:101C9800002010BD012010BD10B50446A0B190F879
:101CA8003D3003F0FF021BB980F83C2002F05AF8DF
:101CB800022384F83D302068211DFFF769FF0123C6
:101CC80084F83D30002010BD012010BD10B5044639
:101CD800A0B190F83D3003F0FF021BB980F83C201A
:101CE80002F076F8022384F83D302068211DFFF7C2
:101CF8004FFF012384F83D30002010BD012010BDA6
:101D0800036A23F010030362036A70B544688269AA
:101D18000D6822F0807222F4E64242EA05228D68BC
:101D280023F0200343EA05131A4DA84207D005F50E
:101D38000065A84203D005F5E055A8420DD1CD684D
:101D480023F0800343EA0513124DA84223F0400311
:101D580012D005F50065A8420ED00F4DA8420BD051
:101D680005F58065A84207D005F58065A84203D02F
:101D780005F50065A84206D124F440658E694C69D2
:101D8800344345EA8404446082614A68826303629A
:101D980070BD00BF002C01400040014038B590F8EC
:101DA8003C30012B04464FF0020010D00123082AD2
:101DB80084F83C3084F83D0043D009D8FAB1042AAD
:101DC8002ED00123002084F83D3084F83C0038BD33
:101DD800102A47D0142A56D00C2AF2D12068FFF7CF
:101DE8007BFD23680969DA6942F40062DA61DA691D
:101DF80022F48062DA61DA6942EA012230E020687E
:101E0800FFF7CAFC236809699A6942F008029A61D7
:101E18009A6922F004029A619A690A439A61D0E7A2
:101E28002068FFF76DFF236809699A6942F4006228
:101E38009A619A6922F480629A619A6942EA012257
:101E4800ECE72068FFF7FCFC23680969DA6942F0CF
:101E58000802DA61DA6922F00402DA61DA690A430F
:101E6800DA61AEE72068FFF76FFD236809695A6DEC
:101E780042F008025A655A6D22F004025A655A6DFA
:101E88000A435A659DE72068FFF796FD23680969AC
:101E98005A6D42F400625A655A6D22F480625A659E
:101EA8005A6D42EA0122ECE770B5046A184E24F034
:101EB80001040462B0428469056A16D0B0F1804F0B
:101EC80013D0A6F59436B0420FD006F58066B0421E
:101ED8000BD006F59636B04207D006F54066B042FC
:101EE80003D006F58056B0420FD124F003042243F4
:101EF8001B0122F0F002DBB225F00A0501F00A010D
:101F08001A4329438261016270BD44F00102EFE780
:101F1800002C0140F8B590F83C30012B04460D46E2
:101F28004FF0020019D0012384F83C3084F83D00BA
:101F3800A2B9CB68206806C9FFF7B6FF2368A9686D
:101F48009A6922F00C029A619A690A439A610123FC
:101F5800002084F83D3084F83C00F8BD042A8E68DF
:101F68002368E86882C91FD11A6A22F010021A622F
:101F78009A691D6A22F4407242EA0722000380B27D
:101F880022F470420901024301F0A00125F0A000EB
:101F980001439A6119629A6922F440629A619A69C6
:101FA80042EA06269E61D2E7082A1A6A1CD122F460
:101FB80080721A62DA691D6A22F003023A4300014C
:101FC800C0B222F0F0020902024301F4206125F4B4
:101FD80020600143DA611962DA6922F00C02DA61E1
:101FE800DA691643DE61B2E722F480521A62DA69CE
:101FF8001D6A22F4407242EA0722000322F470426A
:1020080080B20903104301F4204125F42042114312
:10201800D8611962DA6922F44062DA61DA6942EA5F
:102028000626DFE7036A01F01F0110B501248C4082
:1020380023EA04030362036A8A401A43026210BD5A
:1020480010B5044601220068FFF7ECFF2368154A23
:10205800934221D002F5006293421DD002F54062FE
:10206800934219D002F58062934215D002F580623E
:10207800934211D002F5006293420DD099680A4A42
:102088000A40062A06D0B2F5803F03D01A6842F00B
:1020980001021A60002010BD5A6C42F400425A64D2
:1020A800ECE700BF002C01400700010010B5044612
:1020B80000220068FFF7B6FF23681C4A934213D03A
:1020C80002F5006293420FD002F5406293420BD0B2
:1020D80002F58062934207D002F58062934203D0F2
:1020E80002F5006293420DD1196A41F211121142B0
:1020F80008D1196A40F24442114202BF5A6C22F4D4
:1021080000425A64196A41F21112114208D1196A3F
:1021180040F24442114203D11A6822F001021A60C7
:10212800012384F83D30002010BD00BF002C014081
:1021380010B504460C290DD8DFE801F0070C0C0C8B
:102148001F0C0C0C240C0C0C29000268D36843F0FB
:102158000203D36001222068FFF764FF22680E4B58
:1021680091680B40062B06D0B3F5803F1EBF13685D
:1021780043F001031360002010BD0268D36843F0E8
:102188000403E6E70268D36843F00803E1E702685E
:10219800D36843F01003DCE70700010090F83C30F7
:1021A800012B30B54FF0020340D080F83D30204D70
:1021B80003680122AB4280F83C205A689C6807D02B
:1021C80005F50065AB4203D005F5E055AB4203D1F8
:1021D8004D6822F470022A430D6822F070022A43E7
:1021E8005A60134A934216D0B3F1804F13D0A2F528
:1021F800943293420FD002F5806293420BD002F5DD
:102208009632934207D002F54062934203D002F51A
:102218008052934204D1896824F080020A439A606C
:10222800012380F83D30002380F83C30184630BD4B
:10223800002C014090F83C30012B10B53CD0CB6805
:102248008A681E4C23F4407313434A6823F480635E
:1022580013430A6823F4006313430A6923F4805381
:1022680013434A6923F4005313438A6A23F48043CF
:1022780013438A6923F4702343EA02430268A242A3
:1022880007D004F50064A24203D004F5E054A2424A
:102298000CD14C6A23F4700343EA0453CC69096AED
:1022A80023F08073234323F000730B43536400230C
:1022B80080F83C30184610BD022010BD002C0140AB
:1022C80070477047704700000268816838B5044657
:1022D800C369006915680143606901437A48194375
:1022E8002840014311605168E068256A21F4405193
:1022F800014351609068A16920F43060294301438B
:10230800916072498A4211D1714A7249126B02F086
:102318000302B3F5004F8A5C5AD0082A26D8DFE8B2
:1023280002F0A1A7AA25BD252525C0006A498A4231
:102338002AD1674A126B02F44032B2F5803F00F0AE
:10234800B58015D8DAB9B3F5004F40F08B80FFF7A8
:10235800AFF86268530803EB4000B0FBF2F080B2BC
:10236800A0F110024FF6EF739A426FD9012075E081
:10237800B2F5003F00F0A080B2F5403F46D0B3F57B
:10238800004FF3D01022C8E754498A420FD1504A6F
:10239800126B02F44022B2F5802F00F08780D1D969
:1023A800B2F5002F00F08880B2F5402FE6E74C49DF
:1023B8008A4237D1464A126B02F44012B2F5801FA6
:1023C80074D01DD8002ABED0B3F5004FCED110224C
:1023D800082ACBD801A353F822F000BF57230008DE
:1023E8004F2400081B24000875230008BB2400089C
:1023F800752300087523000875230008C724000802
:10240800B2F5001F58D0B2F5401FDDD1B3F5004F2B
:1024180031D16368580800F5740000F51050B0FB1E
:10242800F3F09CE72F498A42A0D1294A126B02F4A3
:102438004002B2F5800F39D084D9B2F5000F3BD0F5
:10244800B2F5400F9AE7FFF74BF882E720F00F0349
:102458002268C0F342001843D0600020002323669E
:10246800636638BDFFF724F8636800EB530008E0A3
:10247800FFF736F8F8E76368580800F5F40000F548
:102488009050B0FBF3F080B2A0F110024FF6EF735A
:102498009A423FF66BAF2368D860DEE7FEF72EFF5F
:1024A800E2E76368580800F50040EAE7B3F5004F33
:1024B800F4D1FEF723FF4CE7B3F5004FF1D1636881
:1024C800580800F58030AAE7F369FFEF00380140AB
:1024D800001002409C4100080044004000480040B1
:1024E800004C004000500040436ADA0710B506D59A
:1024F8000168846A4A6822F4003222434A609C07D1
:1025080006D50168C46A4A6822F4803222434A60C8
:10251800590706D50168046B4A6822F480222243D1
:102528004A601A0706D50168446B4A6822F40042DB
:1025380022434A60DC0606D50168846B8A6822F467
:10254800805222438A60990606D50168C46B8A685E
:1025580022F4005222438A605A060FD50168046C9F
:102568004A6822F480122243B4F5801F4A6005D1DC
:102578004A68446C22F4C00222434A601B0606D50E
:102588000268816C536823F400230B43536010BD29
:102598002DE9F041069D04460F46164698462168E7
:1025A800CA6937EA02030CBF01220022B24202D0F4
:1025B8000020BDE8F081681CF2D0FEF79DFAA0EB80
:1025C800080085422068036800D37DB923F4D073DE
:1025D8000360836823F00103836020236367A36794
:1025E800002384F870300320BDE8F0815A07D6D55F
:1025F800C3691B05D3D54FF400630362036823F452
:10260800D0730360836823F001038360202363672A
:10261800A367E367E4E72DE9F7439846436F202B68
:1026280004460E4691464BD1002947D0002A45D092
:1026380090F87030012B43D0012380F870300025CA
:102648002123C5674367FEF757FAA368A4F850909B
:10265800B3F5805F0746A4F8529003D123690BB9FC
:1026680035461E46B4F85220CDF8008092B23B465B
:102678004AB940212046FFF78BFF50B920236367F2
:1026880084F8700006E0002280212046FFF780FFD2
:1026980018B1032003B0BDE8F08322685EB935F8AD
:1026A800023BC3F308031385B4F85230013B9BB2D5
:1026B800A4F85230D6E716F8013BF4E70120E9E721
:1026C8000220E7E773B504460026C667FEF714FA4A
:1026D80023681B681A07054615D423681B685B071F
:1026E8000AD56FF07E43009300222B464FF48001F9
:1026F8002046FFF74DFF90B920230020636784F838
:102708007000A3670CE06FF07E43009332460346E7
:102718004FF400112046FFF73BFF0028DDD00320CF
:1027280002B070BD10B5044640B3436F1BB980F8C2
:10273800703001F069FC226824236367136823F072
:10274800010313602046FFF7BFFD012816D0636A16
:1027580013B12046FFF7C8FE23685A6822F4904256
:102768005A609A6822F02A029A601A6842F00102B6
:1027780020461A60BDE81040FFF7A4BF012010BD35
:1027880038B50368B3F1804F05461ED101214FF0DB
:102798009040FEF705FB404C0128236831D1002208
:1027A8005A6202214FF09040FEF7FAFA0128236896
:1027B80036D100225A624FF480613848FEF7F0FAA9
:1027C800012823683BD100225A622A68344B9A4276
:1027D80061D14FF400614FF09040FEF7E1FA314CBF
:1027E800012823683AD100225A624FF480514FF0F1
:1027F8009040FEF7D5FA012823683ED100225A629C
:1028080038BD586AFDF736FE0022274BFDF7C2FF98
:10281800264B0022FDF794FE254BC3E90001C0E7D3
:10282800586AFDF727FE00221F4BFDF7B3FF1F4B29
:102838000022FDF785FE1F4BC3E90001BBE7586A7C
:10284800FDF718FE0022184BFDF7A4FF174B0022D6
:10285800FDF776FE184BC3E90001B6E7586AFDF7A5
:1028680009FE0022104BFDF795FF104B0022FDF7E3
:1028780067FE124BC3E90001B7E7586AFDF7FAFD96
:102888000022094BFDF786FF084B0022FDF758FE92
:102898000B4BC3E9000138BD580200200004004872
:1028A800000800400801002000003D400000E03F13
:1028B8004800002040000020580000205000002060
:1028C80060000020064B1A685023D363002313646A
:1028D800044A12685363044B1B6858225A637047B2
:1028E800D80100201803002048010020064B1A6870
:1028F8004B23D36300231364044A12685363044BC5
:102908001B6853225A637047D8010020180300201F
:1029180048010020064B1A684823D3630023136438
:10292800044A12685363044B1B6850225A63704769
:10293800D80100201803002048010020064B196820
:1029480050220023CA630B64044909684A63044A95
:1029580012685363704700BFD80100201803002095
:1029680048010020064B1A686423D36300231364CC
:10297800044A12685363044A12685363704700BFDD
:10298800D80100201803002048010020064B1A68CF
:1029980050210023D3631164044A12685363044B23
:1029A8001B6864225A637047D8010020180300206E
:1029B80048010020064B1A680023D3631364054AB4
:1029C80012685363044B1B6864225A63704700BF44
:1029D800D80100201803002048010020064B196880
:1029E80064220023CB630A64044909684A63044AE1
:1029F80012685363FEF786B8D80100201803002038
:102A080048010020074B1A6864210023D36311642E
:102A1800054A126850215163044A12685363FEF74D
:102A280071B800BFD8010020180300204801002019
:102A3800074B1A6850210023D3631164054A1268B2
:102A480064215163044A12685363FEF75BB800BF00
:102A5800D801002018030020480100203D2808B5AF
:102A680000F0E08062DC202842D037DC16283FD016
:102A780023DC0B2800F0CC8009DC002800F0C380A0
:102A88000A280AD14FF4FA70FFF730FF05E014283E
:102A9800F8D0F7DC0C2800F0C0806C496C4B0022A1
:102AA800D1E90001FDF7BEFF002800F0CD804FF40A
:102AB800FA70BDE80840FFF791BF1928E2D003DC9F
:102AC8001728DFD01828DCE71E2802D001DC1A28D6
:102AD800E3D14FF4FA70FFF759FFDEE72B28F8D05F
:102AE80011DC232804D008DC212801D02228D4D1E5
:102AF8004FF4FA70FFF722FFCFE7292800F0928001
:102B0800E7DC2828F3E732280BD003DC2C28E0D0B8
:102B18002D28DDE7342800F08A80C0F283803C2825
:102B2800BBD14FF4FA70FFF7F5FEB6E7B0F5816F49
:102B380027D028DC5128F4D00BDC4728F1D003DC5F
:102B48003E2874D04628D2E749280BD0C1DB50284C
:102B5800BEE740F2E933984245D008DC5228C7D096
:102B680053289AD14FF4FA70FFF738FF95E740F2EF
:102B7800FF33984264D0B0F5806F63D0B0F57D7FA5
:102B88008BD1022259E040F21D43984258D01DDCF7
:102B980040F212439842F4D00ADC40F20B439842C8
:102BA8004AD040F20D4398427FF477AF072244E0C1
:102BB800B0F5836F25D040F21B43984213D040F202
:102BC800164398427FF469AF062236E0B0F5856F68
:102BD80038D00ADC40F221439842E7D040F225433E
:102BE80098427FF45AAF012227E0B0F5866FC8D02B
:102BF80040F23A439842C4D040F22C4398427FF4C2
:102C08004CAF082219E04FF4FA70FFF75BFE44E777
:102C18004FF47A70FFF7F6FE3FE74FF47A70FFF74C
:102C280007FF3AE74FF4FA70FFF79CFE35E74FF4D9
:102C3800FA70FFF7BFFE30E70522064B1A602CE753
:102C48000322FAE70422F8E708BD00BF5803002072
:102C580000002E406C0000202DE9F84F974B1B68B0
:102C680003BB974CD4E90267D4E9002330463946C0
:102C7800FDF7B2FA0022934BFDF7F2FE002800F0B0
:102C88008D8332463B46D4E90401FDF7A5FA0022BC
:102C98008C4BFDF7E5FE002840F2E93008BF002024
:102CA800BDE8F88F012B17D18749884B0022D1E95D
:102CB8000001FDF7B7FE002840F022838449834BCA
:102CC8000022D1E90001FDF7ADFE002814BF4FF442
:102CD8007D700A20BDE8F88F022B40F0A180784C67
:102CE8007C4BD4E90067002230463946FDF79AFE4E
:102CF80030B3D4E9028932463B4640464946FDF79F
:102D08006BFA0022744BFDF78DFEC8B1D4E9046755
:102D180042464B4630463946FDF75EFA00226E4B76
:102D2800FDF780FE60B132463B46D4E90601FDF767
:102D380053FA0022684BFDF775FE002840F0E48244
:102D4800DFF88CA1DFF88081DAE90045D8E900676F
:102D5800204632463B462946FDF73EFA00225E4BA6
:102D6800FDF77EFEC146D34630B3D8E9024530466A
:102D780022462B463946FDF755FE40B1D8E90423D3
:102D880030463946FDF74EFE002840F0C182224603
:102D98002B4630463946FDF763FE002800F0BB821B
:102DA800D9E9042330463946FDF75AFE002814BFF6
:102DB80019201820BDE8F88F22462B4630463946A0
:102DC800FDF70AFA0022444BFDF74AFE002800F0FE
:102DD800A582DAE90267204632463B462946FDF7D6
:102DE80021FE40B1DAE9042320462946FDF71AFE00
:102DF800002840F0968232463B4620462946FDF799
:102E08002FFE002800F09082DBE9042320462946A3
:102E1800FDF726FE002814BF17201520BDE8F88FFF
:102E2800032B40F0A680264E2C4BD6E90045002205
:102E380020462946FDF714FE78B10022274BD6E933
:102E48000201FDF70DFE40B10022244BD6E9040132
:102E5800FDF706FE002840F06A821B49204B00223D
:102E6800D1E90001FDF7FCFD0022002842D01D4BEE
:102E780020462946FDF7D6FD48B11B49194B0022CB
:102E8800D1E90001FDF7CEFD002840F05482002270
:102E9800164B20462946FDF7E3FD002840F04E82F8
:102EA8001349124B0022D1E90001FDF7D9FD002892
:102EB80040F20B4008BF2320BDE8F88F6C000020CB
:102EC800580300200000F03F7800002000003E403A
:102ED80088010020000054400000244000005940B0
:102EE8000040554000804140B00100200080514022
:102EF800A00000208D4B20462946FDF7B1FD48B1C2
:102F08008B498C4B0022D1E90001FDF7A9FD00286F
:102F180040F018820022884B20462946FDF782FDA2
:102F280088B18649844B0022D1E90001FDF77AFD7A
:102F380048B17F49824B0022D1E90001FDF772FDBB
:102F4800002840F002820022784B20462946FDF7EF
:102F580069FD002800F0FC817849744B0022D1E912
:102F68000001FDF75FFD002814BF20201E20BDE8EA
:102F7800F88F052B66D1734C734BD4E90067002298
:102F880030463946FDF76CFD78B100226E4BD4E926
:102F98000201FDF765FD40B100226B4BD4E9040145
:102FA800FDF75EFD002840F0D6810022674B3046D1
:102FB8003946FDF737FD002840F0D181DFF87C81E4
:102FC800D8E90267D8E90045304622462B463946FB
:102FD800FDF702F900225E4BFDF742FDC14678B1CC
:102FE80022462B4630463946FDF73AFD40B1D8E92E
:102FF800042320462946FDF715FD002840F0B3813B
:1030080032463B4620462946FDF7E6F80022504B5B
:10301800FDF726FD002800F0A98122462B46304600
:103028003946FDF7FFFC002800F0A081D9E9042308
:1030380020462946FDF714FD002814BF342032200D
:10304800BDE8F88F072B4FF0000020D13D493E4BDB
:103058000022D1E90001FDF703FD002840F0898135
:103068003649394B0022D1E90001FDF7F9FC002867
:1030780040F07F8137492D4B0022D1E90001FDF74F
:10308800EFFC002814BF49204820BDE8F88F042B26
:1030980040F0A9802B4E304BD6E90045002220464F
:1030A8002946FDF7DDFC78B100222B4BD6E9020159
:1030B800FDF7D6FC40B10022274BD6E90401FDF705
:1030C800CFFC002840F059812249244B0022D1E945
:1030D8000001FDF7C5FC0022002845D0204B204602
:1030E8002946FDF79FFC48B111491D4B0022D1E943
:1030F8000001FDF797FC002840F043810022194B9E
:1031080020462946FDF7ACFC002800F03D810B491C
:10311800144B0022D1E90001FDF7A2FC002840F27F
:10312800164008BF2D20BDE8F88F00BF00004940B9
:10313800A000002000004E4000003E40B0010020EA
:1031480000004440580300200000594000804640D9
:103158000000F03F88010020008066400040554094
:1031680000804140008051408F4B20462946FDF7A2
:1031780077FC48B18D498E4B0022D1E90001FDF75B
:103188006FFC002840F0038100228A4B2046294624
:10319800FDF748FC88B18849864B0022D1E9000137
:1031A800FDF740FC48B18149844B0022D1E9000178
:1031B800FDF738FC002840F0ED8000227A4B2046CD
:1031C8002946FDF72FFC002800F0E7807A49764B66
:1031D8000022D1E90001FDF725FC002814BF2A20B0
:1031E8002820BDE8F88F062B60D1754C754BD4E9C3
:1031F8000067002230463946FDF732FC70B10022E4
:10320800704BD4E90201FDF72BFC38B100226D4B5D
:10321800D4E90401FDF724FC00285FD100226A4BA1
:1032280030463946FDF7FEFB00285BD1DFF8888180
:10323800D8E90267D8E90045304622462B46394688
:10324800FCF7CAFF0022614BFDF70AFCC14670B1CA
:1032580022462B4630463946FDF702FC38B1D8E9FC
:10326800042320462946FDF7DDFB00283ED13246DF
:103278003B4620462946FCF7AFFF0022534BFDF79B
:10328800EFFB002835D022462B4630463946FDF75D
:10329800C9FB70B3D9E9042320462946FDF7E0FBB2
:1032A800002814BF3E203C20BDE8F88F082B75D1BC
:1032B80043493BA3D3E90023D1E90001FDF7D0FB43
:1032C800D0B94349384B0022D1E90001FDF7C8FBCA
:1032D800002814BF53205220BDE8F88F40F2254043
:1032E800BDE8F88F4FF48560BDE8F88F3D20BDE854
:1032F800F88F3C20BDE8F88F40F23A40BDE8F88FDF
:103308004FF47D70BDE8F88F40F2FF30BDE8F88FCC
:103318001A20BDE8F88F1820BDE8F88F1420BDE802
:10332800F88F1620BDE8F88F1520BDE8F88F4FF408
:103338008160BDE8F88F2220BDE8F88F40F20B408D
:10334800BDE8F88F1F20BDE8F88F2120BDE8F88F71
:103358001E20BDE8F88F40F21B40BDE8F88F40F210
:103368001D40BDE8F88F3320BDE8F88F3220BDE856
:10337800F88F4FF48660BDE8F88F40F21240BDE840
:10338800F88F2C20BDE8F88F2D20BDE8F88F292074
:10339800BDE8F88F2B20BDE8F88F2820BDE8F88F0E
:1033A8000000000000C0624000004940B001002059
:1033B80000004E4000003E40A000002000004440B5
:1033C8005803002000806640008046400000F03F1F
:1033D80078000020294B2A482A492B4A10B51C6836
:1033E8002A4B013C072C47D8DFE804F0040A111FD8
:1033F8002C2E303D002404600C6014601C6010BD4D
:1034080003240C60002104601160196010BD0024C1
:103418000460032008601E4909681E3901290DD877
:103428000021116002221A6010BD032404600020EC
:1034380008601749096828390129F1D80221116063
:103448000022F0E70224DCE70124DAE7104C2468C4
:10345800492C4FF0000404600CBF032001200860D1
:103468001460186010BD0A4C2468532C0CBF032448
:10347800012404600020F2E70224BCE76C0000206D
:103488002C000020340000203000002038000020EC
:103498006800002008B5434B1B68032B09D8DFE8F8
:1034A80003F01A0210224FF480614FF09040FDF7AC
:1034B80082FC3D4B1B68032B1CD8DFE803F02C165D
:1034C80023334FF0904001224FF48061FDF76EFCEA
:1034D8000A20FDF717FB00224FF480614FF090405F
:1034E800FDF764FCE5E70122F6E740214FF0904044
:1034F800FDF761FC2D4B1B68032B1AD8DFE803F09E
:103508002A1421314FF0904001224021FDF74EFC52
:103518000A20FDF7F7FA002240214FF09040FDF70E
:1035280045FCE7E70122F7E74FF480512048FDF713
:1035380042FC204B1B68032B32D8DFE803F026142B
:103548001C2F1B4801224FF48051FDF72FFC0A2045
:10355800FDF7D8FA00224FF480511548FDF726FCF4
:10356800E7E70122F7E74FF480714FF09040BDE89C
:103578000840FDF720BC4FF0904001224FF48071C5
:10358800FDF714FC0A20FDF7BDFA00224FF4807104
:103598004FF09040BDE80840FDF708BC0122F5E770
:1035A80008BD00BF2C000020340000203800002097
:1035B800000800483000002010B5A6B028220021DD
:1035C80006A800F0C3FD1422002101A800F0BEFDEA
:1035D8005822002110A800F0B9FD02230693012308
:1035E800099306A8102300240A93FDF7EBFB0F2389
:1035F800019321464FF4806301A804930593029434
:103608000394FDF7A7FE074B109310A813941D947D
:103618002294239420941E941F94FDF779FF26B0DA
:1036280010BD00BF0230B0012DE9F04F9BB0FDF78F
:1036380045FAFFF7C1FF142200210FA800F086FD0C
:10364800B54BB64D5A69DFF8F482DFF8F4B242F4AC
:1036580000225A615A6902F400220292029A5A69B7
:1036680042F400325A615A6902F400320392039A12
:103678005A6942F480225A615B6903F480230493F7
:1036880000224FF4A8614FF09040049BFDF78EFB99
:10369800002241F21001A248FDF788FB01222021F7
:1036A8009F480024FDF782FB01264FF4A8630FA969
:1036B8004FF090400F93109611941294FDF7A0FAD2
:1036C80041F230030FA996480F9310961194129463
:1036D800FDF796FA21461C2208A80594069407943B
:1036E80000F034FD21462C220FA800F02FFD8D4A52
:1036F800AC604F2385E80C00284641F65733EB6051
:103708002C616C61AC61FEF7C7FA05A928464FF039
:103718006009059406940794FEF740FD224608A91F
:103728002846CDF8209009960A940B940C940D9491
:103738000E94FEF733FB042208A92846FEF72EFB59
:10374800082208A92846FEF729FB4FF400530FA9C1
:10375800149328464FF0007317930F941094119404
:10376800129413941594169418941994FEF762FD04
:10377800284600F0CDFB6C4D0894102221460FA876
:103788004FF0070A09940A9400F0E0FC4FF08043D8
:1037980085E8080428464FF0FF33EB60AC602C61E5
:1037A800AC61FEF793FA08A928460A2708940A94F8
:1037B800FEF7F4FC22460FA928460F97109611949D
:1037C8001294FEF7A7FB04220FA92846FEF7A2FBD6
:1037D80008220FA92846FEF79DFB1C2221460FA8A8
:1037E800089409940A9400F0B1FC504BC8F80840BA
:1037F80088E8080440466423C8F80C30C8F810402C
:10380800C8F81840FEF748FA08A9404608940A94F0
:10381800FEF7C4FC08220FA94046CDF83C9010944E
:1038280011941394FEF7BAFA0C220FA94046FEF73A
:10383800B5FA404600F06CFB214610220FA8089408
:1038480009940A9400F082FC394ACBF808408BE8C6
:10385800040458464FF6FF72CBF80C20CBF8104002
:10386800CBF81840FEF732FA08A9584608940A948B
:10387800FEF794FC22460FA958460F97109611940C
:103888001294FEF747FB04220FA95846FEF742FBA5
:1038980021461C2208A805940694079400F056FCBB
:1038A80021462C220FA8234F00F050FC224ABC606E
:1038B8004F2387E80C00384641F65733FB603C61DC
:1038C8007C61BC61FEF7E8F905A9384605940694C1
:1038D8000794FEF763FC224608A93846CDF82090E5
:1038E80009960A940B940C940D940E94FEF756FACC
:1038F800042208A93846FEF751FA4FF400530FA9DD
:10390800149338464FF0007317930F941094119442
:103918001294139416E000BF001002401802002011
:1039280000080048002C0140580200200004004014
:1039380000080040C800002000340140D8010020E1
:10394800080100201594169418941994FEF772FC37
:10395800384600F0DDFA21461C2208A8B44FB54EBF
:1039680000F0F4FB21462C220FA800F0EFFBB24A2E
:10397800BC606423384687E80404FB603C617C61D2
:10398800BC61FEF76FF93846FEF786F9224608A9AA
:103998003846CDF8209009940A940B940C940D9411
:1039A8000E94FEF7FBF94FF400530FA93846149311
:1039B8000F94109411941294139415941994FEF77B
:1039C80039FC384600F0A4FA21461C2208A800F069
:1039D800BDFB21462C220FA800F0B8FB974AB46023
:1039E8006423304686E80404F36034617461B4618A
:1039F800FEF738F93046FEF74FF9224608A9304657
:103A0800CDF8209009940A940B940C940D940E947C
:103A1800FEF7C4F94FF400530FA930461493DFF8AA
:103A280068920F9410941194129413941594199405
:103A3800FEF700FC304600F06BFA8149C9F80840EF
:103A48004FF4E1324FF00C0A484689E80600C9F8FD
:103A58000C40C9F81040C9F814A0C9F81840C9F8B2
:103A68001C40C9F82040C9F82440FEF75BFE082135
:103A78004046FEF7E5FA51464046FEF7E1FA214690
:103A88003846FEF7DDFA21463046FEF7D9FA2146D8
:103A98002846FEF74DFB04212846FEF749FB08217E
:103AA8002846FEF745FB21465846FEF741FB042110
:103AB8005846FEF73DFB40F6FF7315226149624CFC
:103AC800624D634E4846FEF7A6FD6248624956A31A
:103AD800D3E9002304F1280EAB4682460F46E4E8FA
:103AE80002237445E5E80223E0E80223E1E8022323
:103AF800E6E80223F3D10023584D594E0193DFF82D
:103B08008CE158485849594ADFF884C1234653E99B
:103B1800048963E902897EE90289CEE9028970E9AC
:103B28000289C0E9028971E90289C1E9028972E959
:103B380002896345C2E90289E9D100212846FEF7D6
:103B48007FFA4620FCF7DEFF494BD3E9008936A30C
:103B5800D3E9002340464946FCF782FF002800F0DD
:103B6800C880DAE90223CAE9002300212846FEF7C3
:103B78009DFA04212846FEF763FA4620FCF7C2FFA7
:103B88003C4BD3E9008900223B4B40464946FCF7B1
:103B980067FF002800F0B0800022384B40464946B5
:103BA800FCF740FF002800F0A780274B2649D3E9FF
:103BB8000223C1E9002304212846FEF777FA0821E9
:103BC8002846FEF73DFA4620FCF79CFF2C4BD3E92C
:103BD800008915A3D3E9002340464946FCF740FF76
:103BE800002800F08D80DBE90223CBE900230821BF
:103BF8002846FEF75BFA00213046FEF721FA4620F8
:103C0800FCF780FF1F4BD3E9008907A3D3E9002302
:103C180040464946FCF724FF0D4B002873D0D3E9F2
:103C28000201C3E9000135E00000000000C0624065
:103C380018030020480100200044014000480140CA
:103C480000440040A041000858030020B0010020B3
:103C580078000020A0000020880100201802002021
:103C6800C8000020C0000020A80100209800002003
:103C7800480000204000002000005E4000806640B0
:103C8800580000205000002098020020D001002099
:103C98006003002000213046FEF708FA0421304670
:103CA800FEF7CEF94620FCF72DFF1D4BD3E900891E
:103CB80019A3D3E9002340464946FCF7D1FE28B3AF
:103CC800D7E90223C7E9002304213046FEF7EEF9BD
:103CD800019B01330A2B01937FF711AFFEF7BCFF5D
:103CE800104B1860FEF7BAFEFFF774FBFFF7D2FB24
:103CF80005E7CAE9008938E70B4BC3E900895AE7A9
:103D0800CBE9008973E7C3E90089C3E7C7E90089FC
:103D1800DAE700BFAFF300800000000000C0624097
:103D28006000002068000020580300200C4B07B5F5
:103D38009A6942F001029A619A6902F001020092BE
:103D4800009ADA6942F08052DA61DB6903F0805345
:103D580001930720019BFCF7E9FE03B05DF804FB23
:103D6800001002400368164A934284B00BD1154BE9
:103D78009A6942F400629A619B6903F400630193B3
:103D8800019B04B07047104A93420AD10D4BDA697F
:103D980042F00202DA61DB6903F002030293029B3C
:103DA800EFE70A4A9342ECD1064B9A6942F4005273
:103DB8009A619B6903F400530393039BE1E700BFF7
:103DC800002C014000100240000400400034014073
:103DD80030B514228BB0044600210DEB020000F030
:103DE800B5F92368B3F1804F3DD103F504330224BC
:103DF800DA6942F00102DA61DA6902F0010200923E
:103E0800009A5A6942F400325A615A6902F400323F
:103E18000192019A5A6942F480225A615B690694B8
:103E280003F480230293029B0125032305A94FF085
:103E3800904005930995FCF7E3FE4FF480630694E0
:103E480005A900241C480593079408940995FCF7D4
:103E5800D7FE1C2022462146FCF77AFE1C20FCF7E0
:103E6800ABFE0BB030BD154A9342FAD1144BDA6958
:103E780042F00402DA61DA6902F004020392039A5A
:103E88005A6942F400325A615B6903F400330493BF
:103E9800049B4FF4C05305930223069305A90A23F4
:103EA8004FF090400993FCF7ABFE00221E2011460C
:103EB800FCF74EFE1E20D2E7000400480008004030
:103EC8000010024003680F4A934282B00BD10E4B98
:103ED8009A6942F400329A619B6903F400330093B3
:103EE800009B02B07047094A9342FAD1064B9A697F
:103EF80042F480229A619B6903F480230193019B19
:103F0800EFE700BF004401400010024000480140B4
:103F180010B514228AB0044600210DEB020000F00F
:103F280015F92368304A934214D1304B5A6942F448
:103F380000225A615B6903F400230093009B072366
:103F48000593022306932A48099305A9FCF758FE0E
:103F58000AB010BD274A93420CD1244B5A6942F447
:103F680000225A615B6903F400230193019B4FF41B
:103F78004073E5E7204A93420FD11C4B5A6942F43B
:103F880000225A615B6903F400230293029BC02359
:103F98000593022306930423D5E7184A934213D1C5
:103FA800124B5A6942F480225A615B6903F48023F8
:103FB8000393039B4FF48073059302230693012315
:103FC800099305A90E48C1E70E4A9342C0D1074B91
:103FD8005A6942F480225A615B6903F4802304938E
:103FE800049B4FF40073E7E7002C014000100240E7
:103FF800000800480004004000340140004401402B
:10400800000400480048014010B5044688B0142256
:10401800002103A800F09AF82268124B9A421ED198
:1040280003F5E63303A9DA6942F40032DA61DA69A2
:1040380002F400320192019A5A6942F400325A613C
:104048005B6903F400330293029B0C23039302235E
:1040580004934FF0904007230793FCF7D1FD08B075
:1040680010BD00BF004400407047FEE7FEE7FEE7D2
:10407800FEE7704770477047FCF732BD0148FDF70F
:10408800D7BC00BF580200200148FDF7D1BC00BFD3
:1040980008010020054BD3F8882042F47002C3F8C9
:1040A80088204FF000629A60704700BF00ED00E082
:1040B800DFF834D0002103E00C4B5B584350043147
:1040C8000B480C4B42189A42F6D30B4A02E00023E5
:1040D80042F8043B094B9A42F9D3FFF7DBFF00F0A3
:1040E80011F8FFF7A1FAFEE700000120D841000807
:1040F800000000200C000020100000208003002099
:10410800FEE7000070B50D4E0D4CA41BA410002551
:10411800A54209D10B4E0C4C00F020F8A41BA410AA
:104128000025A54205D170BD56F8253098470135C0
:10413800EEE756F8253098470135F2E7D0410008F8
:10414800D0410008D0410008D44100080244034689
:10415800934200D1704703F8011BF9E7F8B500BF97
:10416800F8BC08BC9E467047F8B500BFF8BC08BC50
:044178009E467047A8
:10417C0002030405060708090A0B0C0D0E0F10109C
:10418C000102030405060708090A0B0C0D0E0F109B
:10419C0001040802636F6E6E656374696F6E207341
:1041AC007563636573732E0A0D0000000000000038
:1041BC0000000102030406070809000000000102C8
:0441CC0003040000E8
:0441D000BD01000825
:0441D4009901000845
:0C41D800010000001000000000127A003E
:04000005080040B9F6
:00000001FF
